:020000040800F2
:10000000A8100020D1000008174800080937000890
:1000100000000000000000000000000000000000E0
:10002000000000000000000000000000454A000839
:1000300000000000000000001F480008C94A000836
:10004000E3000008E3000008E3000008E300000804
:10005000E3000008790B0008830B00088D0B0008F3
:10006000E3000008FD0A0008E3000008E3000008C0
:10007000E3000008714B0008814B0008E300000812
:10008000E3000008914B0008E3000008E3000008CB
:10009000414B0008514B0008614B0008E300000889
:1000A000E3000008E3000008E3000008955300089F
:1000B000A5530008E3000008E30000080348854654
:1000C00000F0D8FB0048004769660008A81000202F
:1000D0000448804704480047FEE7FEE7FEE7FEE7E6
:1000E000FEE7FEE73D4B0008BD00000830B50B46BB
:1000F000014600202022012409E00D46D5409D4202
:1001000005D31D469540491B254695404019154687
:10011000521E002DF1DC30BD70B5002425460028AC
:1001200001DA01244042002901DA01254942FFF7A2
:10013000DDFFAC4200D04042002C00D0494270BDEF
:10014000F0B51FB40646002082B005464024019158
:1001500000901BE0019922460F46304600F020F83F
:10016000049A059B801A994110D3104619462246DD
:1001700000F088FA361A8F410197224601200021AB
:10018000009F00F07FFA38184D4100902046641E11
:100190000028DFDC019B00982946324607B0F0BDFD
:1001A00010B5202A04DB0846203AD040002110BDBB
:1001B0000B46D340D0402024A21A91400843194650
:1001C00010BDD2B201E00270401C491EFBD2704744
:1001D0000022F6E710B513460A4604461946FFF713
:1001E000F0FF204610BD421C0178401C0029FBD1C5
:1001F000801A7047F8B502464A40D40F42004B00BF
:1002000052085B089A4202D20246084611464A004A
:1002100023D0C30D4A00DDB2120EAD1A202D35DAFF
:1002200049020126490AF6058A19002C00D05242DB
:1002300020214F1B1146B9402A411018C20D9A4285
:1002400021D0002C17D0012D08DCDA05801AD20F3E
:100250008019D207DBB200F040FAF8BDDA05801A47
:10026000012340001B06C01880185A428018CA0F8C
:100270001043490007E04908C2071143DA05801A14
:1002800080194008801800F020FAF8BD61000122B2
:10029000511A001BF7E70122D2075140AAE70122B9
:1002A000D2075040A6E7024670B54A40D30FDB079D
:1002B00040002DD04A002AD0010E140E0002120276
:1002C0000919400A520A8418E50104465443000AF9
:1002D000120A2E045043A4194219200CC543AA182F
:1002E000120C0125AD03521C521912047F3924044B
:1002F00000D0521C104301D44000491EC2B20C066B
:10030000C0092018401C4008802A02D003E00020C9
:1003100070BD40084000002900DA0020184370BD7D
:10032000420005D04200120E52428A4201DB0020F8
:100330007047C90508187047F0B507460846584089
:1003400087B0C00F049048000E4659004008490885
:10035000BC1A884105D2384631461E4617460B4620
:1003600002465800400810434CD0300D0390400521
:100370005900400D490D0590401A0290402872DA4C
:1003800018030121000B090508430190049800920D
:10039000002805D001995242002088410092019026
:1003A000029840210A1A0199009800F06BF905465D
:1003B0000C466B4607CB00F075F9C0197141039AE2
:1003C0000E0D0023D71756401A467A40164344D0E4
:1003D000049A002A2DD0029A012A039A15DC1205EC
:1003E000C01A914101263605001C7141D20F059EAD
:1003F000D2070093019202962A46234600F0B3F9F1
:1004000007B0F0BD38463146FAE71605224A0F46D6
:10041000B218C01AB74101210905001C4F4100184C
:100420007F41114618187941E20F10436D1964415C
:1004300013E0E2076D0815436408C2071443039AEA
:1004400001261205C01A91413605001C7141CE07E4
:10045000400830434908C01851412A46234600F05D
:1004600075F9CDE7FFE7049801224000C117121A81
:1004700000238B4104983146C417381AA141EEE796
:1004800030B40124E407634030BC55E730B40124A4
:10049000E407614030BC4FE70000E0FFF0B51FB457
:1004A00088B00B990998002448400999C00F490069
:1004B00049080991C0070B990090490049080B9120
:1004C00009990898A64608431CD00B990A98084336
:1004D00018D0099801244000420D4800410D0998A8
:1004E00024050003000B204309900B980003000B28
:1004F00020430B9050181C494018002201901446CC
:10050000104605E0002001460DB0F0BD032801DAD9
:10051000034600E003239C46C11A0AAE0AE05F00CE
:1005200008ADED5B4F00F75B7D430027AA187C41C7
:10053000491C5B1E6145F2DD410004AB5A522104A7
:10054000120C0A43240C401C0828DFDB019802909F
:100550000099704601910090059B049A07990698AE
:1005600000F001F9D0E700000DFCFFFFF0B50C46EC
:100570005C4085B0E40FE40703944C000026640857
:1005800059009446490802460296224321D0624609
:100590000A431ED06200570D4A000E032303550D77
:1005A000012402462C492405781B1B0B360B4018EE
:1005B00023432643614600901C46501AB44103D39E
:1005C0000098401C009002E0921800985B410028BF
:1005D00003DA0020014605B0F0BD00200121090525
:1005E0000746864611E064461D46141BB54106D3F6
:1005F0006546521BB341744607430C43A646CD07DC
:1006000040084908284392185B4105460D43EAD14A
:100610001046184313D060461946504071400843B5
:1006200006D06046101AB34106D20122002306E02C
:1006300000220123DB0702E00122D243531000987D
:1006400074460105381C6141029C039D00196941F3
:1006500000F07CF8BFE70000FD030000410040020D
:100660000122400AD205090E80187F2901DA0020F4
:100670007047962903DC9622511AC8407047963974
:100680008840704710B5202A04DB0146203A91408B
:10069000002010BD914020239C1A0346E3401943DB
:1006A000904010BD10B5202A06DBCB170846203A33
:1006B0001041C1170B4306E00B461341D0402024E4
:1006C000A21A91400843194610BD002904DA401CC3
:1006D000490001D140084000704770B40024050C67
:1006E00005D11024000402D1002921D01124050EC7
:1006F00001D100020834050F01D10001241D850F2E
:1007000001D18000A41C002801DB4000641C0029EA
:1007100008D020252E1B0D46F540A14000D0012118
:100720002943084301061B1B000ADB1D02D50020DC
:1007300070BC7047DB05181880180029F8DA401CD7
:100740004900F5D170BC40084000704710B5002B3F
:1007500008DA0024401C614192185B411A4301D120
:100760004008400010BDF0B51FB482B005460C0033
:1007700003D0084604F06AFE02E004F067FE203071
:100780000246009021462846FFF77CFF049B059A0D
:1007900004460F4618431143084314D0184610432B
:1007A0001BD0009840210A1A18460599FFF7F8FC5B
:1007B00005460E46009A05990498FFF763FF084323
:1007C00005D0012004E02046394607B0F0BD0020E6
:1007D000C11705430E432C43374300990E98630518
:1007E000401A7905E40A00220C43FD0A0A3002D5BA
:1007F00000200146E9E70105101969410C9C0D9D97
:1008000000196941FFF7A2FFDFE700004A00090372
:100810000123090B1B0519430A4B10B5520D9A42CF
:1008200002DA0020014610BD064B34339A4203DC45
:100830009A1AFFF7B5FC10BD034BD218FFF722FF41
:1008400010BD0000FF030000CDFBFFFF10B5002925
:1008500004DB0124E40740428C412146002B04DBE9
:100860001C460123DB075242A341994200D190422A
:1008700010BD0000064C0125064E05E0E36807CCDC
:100880002B430C3C98471034B442F7D3FFF71AFCC3
:10089000A8710008C871000870B58C180578401C54
:1008A0006B075B0F01D10378401C2A1106D1027837
:1008B000401C03E006780E70401C491C5B1EF9D1F9
:1008C0002B0705D40023521E0DD40B70491CFAE7E8
:1008D0000378401CCB1A921C03E01D780D70491C54
:1008E0005B1C521EF9D5A142D8D3002070BD10B5B3
:1008F0000146406A826B50231A420AD1816B012261
:100900005202114381630168CA681205920F05D033
:1009100020E0006B026B0846904710BD827E002AE3
:1009200018D10A68120715D58A6853070122002BCF
:1009300009DB4B680C24A3434B60816B1302994382
:100940001143816306E0816B202319438163C16BEE
:100950001143C16300F0C2F910BD10B5406A816B4C
:10096000402211438163C16B04221143C16300F033
:10097000D0F910BD10B5406A00F0CAF910BD0000F2
:10098000F8B5044600200090206881688907890F27
:10099000012905D10168C9072CD1C168090429D4EE
:1009A0008168154A102611400125002915D181685A
:1009B00029438160124811490068FFF797FB00E066
:1009C000401E00900028FBD100F082FD07460CE09D
:1009D00000F07EFDC01B022807D9A06B3043A06346
:1009E000E06B2843E0630120F8BD20680068C04345
:1009F000C007EDD10020F8BD1700008040420F0075
:100A000060010020F0B5054600208C460C4E0346E0
:100A100013E02C780022E707C107FF0FC90F8F42B0
:100A200002D04008704000E04008521C6408D2B276
:100A3000082AF0D35B1C9BB26D1C6345E9D3F0BD63
:100A400001A00000F8B51DA004F0DCFC0125264E35
:100A5000ED022946304600F02FFD00282DD000F091
:100A600037FD224C2061032006F022F8204F17E0CA
:100A700012A004F0C7FC1F4800F060FF0021032013
:100A800006F074F900F024FD2169401AB84207D934
:100A90000021194802F060FA032006F0BDF805E0D5
:100AA0002946304600F008FD0028E1D10021124817
:100AB00002F052FA032006F0AFF8F8BD4368656310
:100AC0006B696E67206966207765206172652061B9
:100AD000742064726F7020706F73206F72206E6F5D
:100AE00074200D0A000000000010004810010020D2
:100AF000B80B0000900800206809002010B50248DB
:100B000000F0A6FA10BD0000B407002010B504469E
:100B100000680C49884208D20B4940181421FFF79D
:100B2000E5FA80002064094809E006494942401876
:100B30001421FFF7DBFA8000206402480838E063E4
:100B400010BD000008040240F8FFFDBF0000024095
:100B500030B5056C0124AC40C56B6C600468636003
:100B60004368102B036803D099600068C26030BDF1
:100B70009A600068C16030BD10B5022000F0D0FB63
:100B800010BD10B5042000F0CBFB10BD10B5402007
:100B900000F0C6FB802000F0C3FBFF20013000F016
:100BA000BFFB0120400200F0BBFB10BD70470000FE
:100BB000F8B50025044620340095227D012A3BD05B
:100BC0000122227503689E68760776D43F4F4E68EF
:100BD000BE4254D09E6A0F78BA4016439E620123EB
:100BE000C26A1B079A421FD0012A1DD0022A1BD0BD
:100BF000032A19D0042A17D0052A15D0062A13D0A3
:100C0000072A11D002688B6856697607760FB342BF
:100C10000AD05369DB08DB005361006842690B7A34
:100C20005B075B0F1A4342610868102806D0112841
:100C300004D0122802D045E00220F8BD244A93686F
:100C4000102809D011280AD0012000060343936020
:100C50000868102806D035E00120C005F6E701201D
:100C60008005F3E71C481B490068FFF73FFA0A219B
:100C7000484300E0401E00900028FBD122E0986A23
:100C80000E78B240904398620868102803D011286B
:100C900001D0122816D10E498A68102807D01128D1
:100CA00008D00120000682438A600BE005E00120A5
:100CB000C005F8E701208005F5E7816B202211438C
:100CC00081630125002020752846F8BD0110000031
:100CD0000027014040420F006001002010B50A4883
:100CE0000A4A4179152905D81368046B1B19491C58
:100CF000036300E0FF2141718179012903D111894A
:100D0000C1820021817110BD28010020440600200D
:100D100070477047F8B500260446002805D0A06B40
:100D200025462035002802D007E00120F8BD00202C
:100D3000E0632875204600F0A9F8A06B1022C006D9
:100D4000002870DB2068816849076CD4A16B13010F
:100D5000994302231943A16381688907890F0129F7
:100D600005D10168C9070FD1C16809040CD4C16855
:100D700018239943A3681943C16020680169636817
:100D800089008908194301612068C1683D4B1940F9
:100D9000C160207E617E8003C9030843A17E4B03AE
:100DA0001843A36A012B02D001231B0300E0002398
:100DB0001843E36818432369022B09D00023184322
:100DC0002B79E57E5B0018430123012D02D00AE058
:100DD0000423F4E7002927D0A16B20252943A16330
:100DE000E16B1943E163E1690D46FF3DC23D02D06D
:100DF000256A294308432168CD680543CD60012554
:100E0000E16A2D07A94213D0012911D002290FD080
:100E100003290DD004290BD0052909D0062907D0B4
:100E2000072905D010E028E0012109040843DAE78A
:100E300021684D69ED08ED004D6121684D69A78D70
:100E40007F077F0F3D434D612168C9680E4D2940E2
:100E5000814207D10020E063A06B80088000401C25
:100E6000A06308E0A06B022188431043A063E06BFD
:100E70001843E06301263046F8BDA06B1043A06321
:100E8000F8E700001902FEFFE7FF3F83F0B587B0E7
:100E9000054614216846FFF79BF92D4928688842CA
:100EA00054D12C4988694E15304388618869304097
:100EB00005904A69B00202434A614A6902400592BC
:100EC0004A69801002434A614A69024005924A69B0
:100ED000400002434A6149690324014005911520FD
:100EE00000276A4691C269461B4800F025FA022095
:100EF0006A4691C209206946C00600F01DFA012029
:100F00006A4691C26946154800F016FA1448154C15
:100F100081C427608020A66060600001E06020201E
:100F2000676120610F48083C00F0E0F8002801D01C
:100F3000FFF73CFE0A487830816A0909090181629D
:100F4000816A0122114381622C63656207B0F0BDA2
:100F5000002401400010024000080048000400483E
:100F600008000240B4070020F7B5044600680025D9
:100F7000806840073DD426462036307D01280AD0BF
:100F800001273775607E012807D02046FFF7F8FC5F
:100F9000050002D02EE00220FEBDA06B16490840DD
:100FA000FF2101310843A0630020E0633075216B0D
:100FB00012488862216B1248C862216B114808638D
:100FC00021681C200860206841681022114341609C
:100FD0002068C1683943C1602168206B4031029BA1
:100FE000019A00F0ADF82068816804221143816005
:100FF00000E002252846FEBDFEF1FFFFEF080008D5
:10100000750900085B09000870B50024014620310D
:101010004A78022A03D004218163012416E0026881
:1010200013680E25AB431360026813685B085B000E
:1010300013600122056C1346AB40C56B6B604A70B0
:1010400000220A70416B002900D08847204670BDFD
:10105000F0B4C16B0D6801680C680422066C13467D
:10106000B3402B420DD063070BD50B689B0602D40F
:101070000B6893430B60016C8A40C16B4A60C16A84
:1010800019E00227B74002462F4001232032002FEB
:1010900015D0A70713D50C68A40604D40C680A253C
:1010A000AC430C605370036C02219940C36B5960D0
:1010B00000211170816A002916D0F0BC084708276A
:1010C000B7402F4210D024070ED50C680E25AC4334
:1010D0000C60046C1946A140C46B6160836353705B
:1010E00000211170016BE6E7F0BC704770B5040099
:1010F00021D0022120462030054641702268116827
:101100000E48A3680140606826691843E3683343CA
:10111000184363691843A3691843E36918430843F4
:1011200010602046FFF7F2FC0021A16301206870E7
:101130002970084670BD012070BD00000FC0FFFF80
:10114000F8B504468C46203001780025012909D0E5
:101150000126067041780027012905D00770022575
:101160002846F8BD0220F8BD02214170A76320681F
:10117000016849084900016061462046FFF7E8FC24
:10118000E06A00282068016802D00E22114306E0C0
:101190000A22114301602068016804229143016022
:1011A0002068016831430160DAE7000070B5044649
:1011B00000F08EF90546601C02D00448007824181F
:1011C00000F086F9401BA042FAD370BD64010020F4
:1011D000F8B5FF2100253F4E01313F4C80280FD04C
:1011E000884269D100F074F9216A401A46283DD935
:1011F00000F06EF920622078384F012837D039E0AE
:1012000000F066F9E169401A7D21090188422DD973
:1012100000F05EF90246E0616078314F012802D1AA
:101220003878401C387039782EA004F0EBF830493B
:1012300038780978884219D3012003F005FC07208B
:1012400000F0D2FB65703D7000F042F9E0610420CF
:10125000307028480A230088032201127170B07090
:101260001C49254802F086F905F06CFBF8BD38787A
:10127000401C38702148397800788142F6D300202C
:1012800003F0E2FB072000F0AFFB13203070194899
:101290000A230088032201127170B0700D491648AC
:1012A00002F068F905F04EFB257000F011F920629C
:1012B00012483D700570F8BD0228FCD1207A012843
:1012C00005D0012020720EA004F09CF8F8BD257214
:1012D0000FA0F9E774060020280100201401002067
:1012E00013010020633A256420743A0925640A003A
:1012F0001501002090000020280B0020160100207E
:10130000204261747465727920696E0D0A000000D4
:101310002042617474657279206F75740D0A000043
:1013200010B504494A69024202D04861FFF750FFF4
:1013300010BD000000040140FCB500230124A6E01C
:1013400027462A469F403A4073D04D68012D05D06C
:10135000022D03D0112D01D0122D16D18568032640
:10136000AC465D00AE46AE406546B543AC46CE6881
:101370007546AE4065462E43866046680D79BE438D
:10138000ED06ED0F9D4035434560C6685F000325BF
:10139000BD40AE46AE4335468E68BE402E43C66065
:1013A0004E68022E01D0122E14D1DE08B600361877
:1013B0000196366A5D07B446EE0E0F25B5400096DD
:1013C0006646AE43B4460D69009EB54066462E4360
:1013D000019D2E6206687546AE430D79AD07AD0FCF
:1013E000BD40354305604D68ED004FD52B4DAE69CE
:1013F0002643AE61AD699E08ED07ED0F0095284DBF
:10140000B6007519AC46AD689E07360F0F27B7407A
:10141000BD430927FF06B84201D1002715E0214F3F
:10142000B84201D1012710E01F4FB84202D1022774
:101430000BE02BE01D4FB84201D1032705E01C4F04
:10144000B84201D1042700E00527B7402F43654685
:10145000AF60184E35684F689543FF0300D51543BC
:10146000356075684F689543BF0300D515437560B7
:10147000B5684F689543FF0200D51543B560F56820
:101480004F689543BF0200D51543F5605B1C0A68A1
:101490001546DA4000D053E7FCBD000000100240C2
:1014A000000001400004004800080048000C00480B
:1014B00000100048000401400069084000D00120ED
:1014C0007047002A01D08161704781627047000037
:1014D00001488068704700006401002070B5024632
:1014E00040325378202B1CD11378012B19D00123C3
:1014F000137024245470046825689D432560046893
:1015000025681E03B5432560046825680D432560E2
:10151000006801681943016020205070002010709D
:1015200070BD022070BD70B5024640325378202B4A
:101530001BD11378012B18D001241470242353706D
:1015400003681D68A5431D6005682B680F263602D9
:10155000B34309021943296000680168214301600F
:10156000202050700020107070BD022070BD00005F
:1015700070B5040006D0254640356878002600285E
:1015800002D005E0012070BD2E70204600F05AF90F
:1015900024206870206801684908490001600F2113
:1015A0006068090688432168086121688A6801200B
:1015B000C00382438A60E1680129A16808D0212222
:1015C0009202114322689160E168022902D005E08D
:1015D0000143F7E701212268C902516021684A6886
:1015E0000F4B1A434A602168CA688243CA60616926
:1015F00020690843A169090208432168C860216A7B
:10160000E0690843216808602068016801221143ED
:1016100001606664202068702663AE70002070BD93
:1016200000800002FFB5054604464035687881B069
:10163000202878D12878012875D001202870FFF75C
:1016400047FF0746012200901923D103204602F0EC
:10165000B9F800283CD1222068701020A87000261C
:10166000666403986062049860856663618D2F48A4
:10167000FF2903D9FF22228500903BE0618D21855F
:1016800000903DE02046029902F088F816E002F052
:10169000C1F800281CD12068406A616A0870606A3D
:1016A000401C6062208D401E81B22185608D401EED
:1016B0006085608D002801D000290CD0608D0A99CA
:1016C00000283A462046E2D102F0E4F800281CD077
:1016D000012005B0F0BD00970022802120460A9B22
:1016E00002F070F80028F3D1608DFF2805D9FF22A1
:1016F0002285009601231B06C4E7608D2085009695
:10170000208D0123C2B25B06BCE721682020C8619E
:1017100021684A68064B1A404A606870AE702E70A5
:101720000020D6E7FFE70220D3E700000024008076
:1017300000E800FEFFB5054604464035687881B0F4
:10174000202878D12878012875D001202870FFF74B
:10175000BFFE0746012200901923D103204602F064
:1017600031F800283CD1212068701020A870002694
:10177000666403986062049860856663618D2F4893
:10178000FF2903D9FF22228500903BE0618D21854E
:1017900000903DE02046029902F000F816E002F0C9
:1017A0009FF800281CD1606A216800788862606A0E
:1017B000401C6062608D401E6085208D401E80B29E
:1017C0002085618D002901D000280CD0608D0A99F8
:1017D00000283A462046E2D102F05CF800281CD0EE
:1017E000012005B0F0BD00970022802120460A9B11
:1017F00001F0E8FF0028F3D1608DFF2805D9FF2212
:101800002285009601231B06C4E7608D2085009683
:10181000208D0123C2B25B06BCE721682020C8618D
:1018200021684A68064B1A404A606870AE702E7094
:101830000020D6E7FFE70220D3E700000020008069
:1018400000E800FEF0B587B0044614216846FEF7B4
:10185000BFFC1D4F266801221C4C92041225012159
:1018600003231B48BE4212D166691643666166694E
:10187000029116401A020596049101950393009275
:101880006946FFF759FDE1690120400515E0114F58
:10189000BE4217D1666916436661666902911640B9
:1018A00003229202059604910195039300926946E2
:1018B000FFF742FDE169012080050143E161E16933
:1018C0000140059107B0F0BD0054004000100240F7
:1018D000000400480058004070B504000FD0216893
:1018E0001348086021681348086003CC41602068F1
:1018F000083C21688860FFF7EBFD054608E0012001
:1019000070BDFFF7E5FD401B302801D9032070BDF5
:101910002068C0680028F4D120680269E1688A4222
:1019200001D0016101E004490160002070BD0000A8
:10193000CCCC000055550000AAAA0000006802495E
:101940000160002070470000AAAA000002488168D8
:1019500002788918816070476401002010B506483C
:101960000168102211430160002000F007F800F028
:1019700027F8002010BD00000020024070B504468A
:101980000D4D7D202978C000FEF7B0FB01460B48C5
:101990000068FEF7ABFB00F06BFE002809D1042CB9
:1019A00007D200222146401E00F03AF800206C6069
:1019B00070BD012070BD00006401002060010020A6
:1019C00008B508488169012211438161816911408C
:1019D0000091C26901040A43C261C06908400090D5
:1019E00008BD000000100240002809DBC106C90E36
:1019F0000120884003490860BFF34F8FBFF36F8F0A
:101A00007047000080E100E0002805DBC106C90E38
:101A100001208840014908607047000000E100E0B3
:101A200010B503F04FFD10BDF8B504460068434DF6
:101A3000C00352D5E8690026C00007D4E96928042C
:101A40000143E961E9690140012600913C480168D0
:101A5000C90510D40168821511430160FFF738FDF4
:101A6000074604E0FFF734FDC01B642824D834483F
:101A70000068C005F6D5286A03273F02384020D009
:101A80006168394081421CD0286A2A6AB843012122
:101A900009040A432A622A6A8A432A622862C00722
:101AA0000FD0FFF715FD009008E0FFF711FD00993A
:101AB000411A2448814201D90320F8BD286A8007D1
:101AC000F3D5286A6168B84308432862002E04D021
:101AD000E869012109078843E8612078C00705D03B
:101AE000286BA1688008800008432863207880075D
:101AF00006D5286B032109048843E168084328635D
:101B00002068400306D5286B032189048843216996
:101B1000084328632078800605D5286B1021884368
:101B20006169084328632088400505D5286B40215A
:101B30008843A169084328630020F8BD00100240D3
:101B4000007000408813000070470000F8B50F4691
:101B500006005FD03D4D2868C007C00FB84209D2CB
:101B6000286840084000384328602868C007C00F34
:101B7000B8424FD13068364C81070CD5400704D5A8
:101B8000606807210902084360606068F0218843AB
:101B9000B168084360603078C0072CD070680128B5
:101BA00010D0022811D0032812D0216889070029FB
:101BB00030DA61688908890001436160FFF788FCB9
:101BC000009011E021688903F1E721688901EEE7BF
:101BD000616BC903EBE7FFF77BFC0099411A1D48D5
:101BE000814201D90320F8BD60680C21084071686A
:101BF00089008842EFD12868C007C00FB8420BD9CE
:101C0000286840084000384328602868C007C00F93
:101C1000B84201D00120F8BD3078400706D5606891
:101C2000072109028843F1680843606000F032F838
:101C30006168094A0906090F515CC84007490860F4
:101C40000020FFF79BFE0020F8BD000000200240AE
:101C5000001002408813000090710008600100200D
:101C6000034801680122D20411430160704700005B
:101C7000001002400448054900684968044A4905C3
:101C8000490F515CC84070476001002000100240BD
:101C9000A071000830B519A30FCB89B06C460FC4F2
:101CA0001AA30FCB0FC41D4A51680C200B460340EA
:101CB0001B48042B05D01B4D082B04D00C2B00D146
:101CC000284609B030BD8B021B0F6C46E45CD26A1B
:101CD00004AB1207120FC9039A5C890F022901D0C5
:101CE000032901D0002301E0002328460021FEF74C
:101CF00027FA214603F0C1FBE3E7000002030405D5
:101D0000060708090A0B0C0D0E0F10100102030440
:101D100005060708090A0B0C0D0E0F1000100240F3
:101D200000127A00006CDC0210B5044CA0680006BA
:101D300003D5FFF709FF8020A07210BD00100240FC
:101D4000FEB5040070D02078F94EFA4DC00748D097
:101D500068680007800F01281FD068680007800F9F
:101D6000022804D16868C003800F022815D061687A
:101D7000012919D001208004002901D0052917D09C
:101D80002968B14329602968814329606068002877
:101D90001BD0FFF79DFB074613E02868800320D582
:101DA00060680028CED01CE0286830432860EDE74A
:101DB000296801432960F7E7FFF78AFBC01B642805
:101DC00070D828688003F7D50BE0FFF781FB074642
:101DD00004E0FFF77DFBC01B6428F1D8286880036E
:101DE000F7D4207880073FD568680007800F14D0AB
:101DF00068680007800F022804D16868C003800F5C
:101E000001280AD0E068002828681ED00121084374
:101E10002860FFF75DFB07460CE0286880070CD5BB
:101E2000E068012800D108E080E1FFF751FBC01B0A
:101E30000228C5D828688007F7D52868F821884384
:101E40002169C900084328600EE04008400028606E
:101E5000FFF73EFB074604E0FFF73AFBC01B0228F2
:101E6000AED828688007F7D42078000723D5E0692A
:101E70000028686A0FD0012108436862FFF728FB39
:101E8000074604E0FFF724FBC01B022898D8686AC5
:101E90008007F7D50FE0400840006862FFF718FBA5
:101EA000074605E0C3E0FFF713FBC01B022887D8F5
:101EB000686A8007F7D4207804274007002861DA91
:101EC00000200190E869C00008D4E969B806014320
:101ED000E961E9690140012000910190964801689B
:101EE000C90511D40168821511430160FFF7F0FAAA
:101EF000009005E0FFF7ECFA0099401A642898D8A2
:101F00008D480068C005F5D5A06801280AD00028D2
:101F100001D0052811D0286A400840002862286AAC
:101F2000B84302E0286A012108432862A06800281B
:101F300012D0FFF7CDFA00900AE0286A38432862F1
:101F4000F0E7FFF7C5FA0099411A7C4881426ED844
:101F5000286A8007F5D50DE0FFF7BAFA009006E091
:101F6000FFF7B6FA0099411A744881425FD8286A8F
:101F70008007F5D40198002804D0E9690120000702
:101F80008143E9612078C00635D5606901280CD00D
:101F9000401D686B24D038436863686B400840007C
:101FA0006863FFF795FA074622E0686B3843686379
:101FB000686B012108436863FFF78AFA074604E06B
:101FC000FFF786FAC01B022831D8686B8007F7D567
:101FD000686BF8218843A169C900084368630AE077
:101FE000B8436863F4E7FFF773FAC01B02281ED8F2
:101FF000686B8007F7D42078800637D568680007BB
:10200000800F032814D068680007800F022804D1CD
:102010006868C003800F03280AD0206A0028686B14
:1020200016D030436863FFF753FA06460CE062E0CF
:10203000686BC0031AD5206A012877D116E0FFF734
:1020400047FA801B022856D8686BC003F7D50DE00D
:10205000B0436863FFF73CFA064604E0FFF738FA3E
:10206000801B022847D8686BC003F7D4606A002839
:1020700066D069680907890F022942D00126360611
:102080000228286805D0B0432860FFF721FA0446EB
:1020900033E0B0432860FFF71BFA074604E0FFF780
:1020A00017FAC01B022826D828688001F7D4E86AEE
:1020B000216B000900010843E862A16AE06A084355
:1020C00069687B22D20391430843686028683043E3
:1020D0002860FFF7FDF9044604E0FFF7F9F9001B5B
:1020E000022808D828688001F7D529E0FFF7F0F921
:1020F000001B022801D90320FEBD28688001F5D409
:102100001EE00128F8D06868E96A0322D203A36AB6
:1021100002409A420AD10907226B090F914205D168
:102120000F2189040840E16A884209D00120FEBDE0
:102130000000010000100240007000408813000001
:102140000020F4E7F8B5040007D000262546403506
:10215000A662687F002802D005E00120F8BD2E7736
:10216000204600F04BF802236B772068016840227C
:10217000914301600721E0680902884201D90022E9
:1021800001E0012212030F273F02B84202D0884229
:1021900000D0A662276B002F05D1884201D92363A6
:1021A00001E001202063A168606863690843216938
:1021B000194308430123A1695B0219400843E169FF
:1021C0000843216A0843A16A084321680860616BDB
:1021D000606AA36908431B0C0427E1683B4019436C
:1021E00008432168104348602068C1697A0291431E
:1021F000C1612666012068770020F8BD30B587B040
:10220000044614216846FDF7E3FF24681D4D0021B4
:102210001D4802230322AC4216D18569841425434C
:10222000856185692540059545695C0425434561BF
:10223000406902912040059038200491009001935C
:1022400003926946114819E0114DAC4218D1C56995
:1022500024142543C561C569254005954569A40138
:10226000254345614069029120400590122000906D
:10227000012004900193039269460648FFF75CF839
:1022800007B030BD0030014000100240000400489B
:1022900000380040000C0048FFB5054604464035B4
:1022A000287F002781B01646012809D00120287711
:1022B000FFF70EF90090687F012804D00227A5E0FF
:1022C000022005B0F0BD0298002870D0002E6ED01C
:1022D00003206877002020660299A163A687E6871D
:1022E0002064A880E8802065E0640121A068C9031B
:1022F000884205D1206801680122920311430160E0
:1023000020680168490603D4016840221143016036
:102310000720E16800028142606826D9002801D0C8
:10232000012E1ED1A06B21680088C86006E02068DD
:102330008168890709D5A16B0988C160A06B801CE1
:10234000A063E08F401EE0870BE0FFF7C1F8009923
:10235000411A0498814202D3401C02D04CE000286C
:102360004AD0E08F0028E2D139E0002801D0012EC8
:1023700032D1E08F0128A06B03D921680088C860A2
:102380000FE021680078087314E0E08724E02068FB
:102390008168890714D5E18F0129A16B08D90988C3
:1023A000C160A06B801CA063E08F801EEDE72CE075
:1023B00009780173A06B401CA063E08F401EE4E726
:1023C000FFF786F80099411A0498814202D3401C15
:1023D00002D011E000280FD0E08F0028D7D120468E
:1023E000009A049902F07AFA002801D02020206691
:1023F000A068002802D005E0032707E02068C16834
:1024000080680090206E002800D0012701206877A6
:1024100000202877384654E7FFB5044683B00120F2
:1024200001900020254640350090287F0C9F1E46D5
:1024300001280FD001202877FFF74AF80290687F23
:10244000616801280DD0CA1FFD3A08D1A168002992
:1024500005D102E0022007B0F0BD042801D002201F
:1024600004E10498002822D0059800281FD0002EEF
:102470001DD0687F042801D00520687700202066E1
:1024800005992164EE80AE800499A163E687A68752
:10249000E06420650723E1681B02994201D8012E00
:1024A00007D92068416801221203914306E0012008
:1024B000DCE020684168012212031143416020687A
:1024C0000168490603D40168402211430160E168B4
:1024D0006068994244D9002801D0012E39D1A06BFF
:1024E00021680088C860A06B801CA063E08F401E3C
:1024F000E0872EE020688168890710D5E18F0029E8
:102500000DD0019901290AD1A16B0988C160A06B86
:10251000801CA063E08F401EE087002001902068AF
:102520008168C9070DD0E98800290AD0C068216CEC
:102530000880206C801C2064E888401EE880012010
:102540000190FEF7C5FF0299401AB84201D3781CEA
:1025500071D1E08F0028CDD1E8880028CAD173E07E
:10256000002801D0012E69D1E08F0128A06B08D985
:1025700021680088C860A06B801CA063E08F801E6B
:1025800007E0216800780873A06B401CA063E08F0F
:10259000401EE08752E02068816889071BD5E18FE3
:1025A000002918D00199012915D1E18F0129A16BCA
:1025B00007D90988C160A06B801CA063E08F801ED2
:1025C00006E009780173A06B401CA063E08F401EF9
:1025D000E0870020019020688168C90723D0E9883E
:1025E000002920D0E988012912D9C068216C08800F
:1025F000206C801C2064E888801EE880E888012820
:102600000FD820684268012109030A43426008E0AC
:10261000007B216C0870206C401C2064E888401E00
:10262000E88001200190FEF753FF0299401AB8425A
:1026300002D3781C02D018E0002F16D0E08F0028BB
:10264000A9D1E8880028A6D139462046029A02F08E
:1026500045F9002803D001200090202020660120A9
:102660006877002028770098F5E603200090F6E7C9
:10267000094910B5401E884201D9012010BD074C00
:1026800060610321081F02F01DFF0020A0610720E8
:102690002061002010BD0000FFFFFF0000E000E00F
:1026A0007047704730B5034620331A7F012A26D081
:1026B00001221A770325CA682D02AA438D680024D7
:1026C0002A430125AD02AA434D6800682A4301252B
:1026D000ED02AA430D682A4301252D03AA430D6983
:1026E0002A4301256D03AA434D69C9692A4301257F
:1026F000AD03AA430A4342641C77002030BD022088
:1027000030BD0000F0B502462032137F012B21D0EE
:10271000012515770223537706687468B36870271C
:10272000BC430F682743776000680B4CA04208D079
:10273000AC07A04205D0094CA04202D0084CA042F0
:1027400004D180244968A343194381605577002050
:102750001077F0BD0220F0BD002C014000040040C5
:102760000040014070B5040005D025462035687F43
:10277000002802D006E0012070BD00202877204606
:1027800000F00AF802206877211D206802F008FA9C
:1027900001206877002070BD08B5324A01683248D0
:1027A000914215D18269C1140A4382618069002275
:1027B0000840009011460D20FFF732F90D20FFF779
:1027C00023F9002211460E20FFF72AF90E200FE010
:1027D000264A91420FD1C26910210A43C261C069E1
:1027E00000220840009011461120FFF719F911202E
:1027F000FFF70AF908BD1E4A91420ED182690121F4
:1028000009040A4382618069002208400090114651
:102810001420FFF705F91420EAE7164A91420ED179
:102820008269012149040A438261806900220840CB
:10283000009011461520FFF7F3F81520D8E70E4A4F
:102840009142D7D18269012189040A43826180695A
:1028500000220840009011461620FFF7E1F81620EC
:10286000C6E70000002C01400010024000100040AC
:102870000040014000440140004801400268D36824
:1028800001210B43D360006882685207520F062A69
:1028900002D002680A43026000207047F8B505467E
:1028A00004462035287F012817D001262E770220E4
:1028B0006877226890687727FF23B8431B02984304
:1028C00090600A68502A31D00EDC202A4BD006DCFA
:1028D000002A48D0102A3AD145E00220F8BD302A1B
:1028E00041D0402A33D136E0602A27D0702A12D056
:1028F00001200003121A2AD0824228D1CB684A68EC
:102900008968206802F0A3F9206881680122920397
:10291000114381601BE0CB684A688968206802F037
:1029200096F9216888683843886010E0CA68496869
:10293000206802F09BFA5021206806E0CA684968C6
:10294000206802F0A4FA6021206802F08BF96E770B
:1029500000202877F8BDCA684968206802F086FA26
:1029600040212068F1E711462068EEE7704770B516
:102970000446006801690025C9438907002915DB61
:10298000C168C943890711D4E91E0161012020777C
:10299000206880698007204602D0FFF7E7FF04E047
:1029A00000F0F8F8204600F079F9257720680169F1
:1029B000C943490717D4C168C943490713D404213F
:1029C000C943016102202077206880698005800F5B
:1029D000204602D0FFF7CAFF04E000F0DBF82046F3
:1029E00000F05CF9257720680169C943090716D40E
:1029F000C168C943090712D40821C94301610420F1
:102A000020772068C0698007204602D0FFF7AEFF1C
:102A100004E000F0BFF8204600F040F92577206878
:102A20000169C943C90617D4C168C943C90613D48B
:102A30001021C9430161082020772068C069800502
:102A4000800F204602D0FFF791FF04E000F0A2F8CB
:102A5000204600F023F9257720680169C943C9079A
:102A600008D1C168C943C90704D1891E0161204644
:102A700000F0C0FA20680169C943090609D4C16899
:102A8000C943090605D48021C94301612046FFF7E7
:102A900007FE20680169C943490609D4C168C943D2
:102AA000490605D44021C9430161204600F0D6FA09
:102AB00020680169C943890609D4C168C9438906E8
:102AC00005D42021C94301612046FFF7EAFD70BD0E
:102AD000F0B587B0044614216846FDF779FB264817
:102AE0002568002225490223854210D14C6918042B
:102AF00004434C61496902920140059140120090E3
:102B000009200193049303926946C00612E01C4811
:102B10000126854212D14C69B00404434C614969D5
:102B200002920140059100110090049601930392D6
:102B300069461448FEF700FC07B0F0BD124F0124AF
:102B400064051248BD4207D14D6925434D6149696D
:102B500000962140059109E00D4EB542ECD14D693A
:102B600025434D61496900932140059102920392EA
:102B7000694601930492DDE7002C014000100240F9
:102B8000004001400004004800440140001000489B
:102B9000004801407047F8B5064604462036307FAD
:102BA0000D4601280DD001203077022070770427D0
:102BB000002A08D0042A16D0082A2AD00C2A4DD17F
:102BC00037E00220F8BD206802F054F820688169DF
:102BD00008221143816120688169B94381612068BD
:102BE00081692A6912E0206802F088F82068826909
:102BF0000121C9020A43826120688169012292028F
:102C000091438161206881692A69120211438161BF
:102C100024E0206802F0B2F82068C26908210A4363
:102C2000C2612068C169B943C1612068C1692A696C
:102C300012E0206802F0E4F82068C1690122D202A3
:102C40001143C1612068C269012189028A43C261BE
:102C50002068C1692A6912021143C161012070779D
:102C600000203077F8BD70B5040005D0254620352A
:102C7000687F002802D006E0012070BD0020287780
:102C8000204600F00AF802206877211D206801F034
:102C900087FF01206877002070BD7047F8B50646B1
:102CA00050480025504C864211D1A078012817D1F8
:102CB000A0884B21401C80B24901A08088420FD9D6
:102CC000A5700021474800F00DF9A58008E04748AD
:102CD000864205D1474946480860C168491CC16021
:102CE00045487D27FF0086424DD1207801280AD132
:102CF000A068401CA060B84245D9257000213E481C
:102D000000F0F0F8A560207802280CD1A0687D21A1
:102D1000401C0901A060884235D925700021364841
:102D200000F0E0F8A560207803280CD1A0687D2190
:102D3000401C4901A060884225D9257000212E48F9
:102D400000F0D0F8A560207805280CD1A0687D217E
:102D5000401C8901A060884215D9257000212648B1
:102D600000F0C0F8A560207806280CD1A068E12109
:102D7000401C0901A060884205D9257000211E4829
:102D800000F0B0F8A5601D48864229D1607801287E
:102D90000BD1E068FF21401CF531E06088421FD96B
:102DA0006570002001F050FEE5606078022809D1CE
:102DB000E068401CE060B84212D96570002001F064
:102DC00043FEE560607803280AD1E0680C49401CA6
:102DD000E060884204D96570002001F035FEE560AE
:102DE000F8BD0000E809002068000020680A002003
:102DF000240200203C00002068090020280A00204E
:102E0000DC05000010B504460068012201F012FF45
:102E10000E482168814208D00D48814205D00D48F6
:102E2000814202D00C48814204D1486C0122D20375
:102E300010434864206881684907490F062903D078
:102E40000168012211430160002010BD002C0140E7
:102E500000400140004401400048014010B50268B4
:102E60000446002906D0042907D008292BD00C29B4
:102E700007D12BE0D068022301E0D0680423184377
:102E8000D0600122206801F0D5FE124821688142FD
:102E900008D01148814205D01048814202D0104824
:102EA000814204D1486C0122D20310434864206857
:102EB00081684907490F062903D00168012211439F
:102EC0000160002010BDD0680823D8E7D068102327
:102ED000D5E70000002C01400040014000440140C3
:102EE0000048014030B504460068002201F0A2FE0F
:102EF000154A144821689310814208D01348814232
:102F000005D01348814202D0124881420AD1086A92
:102F1000104207D1086A184204D1486C0125ED031C
:102F2000A84348642068016A114206D1016A194227
:102F300003D101684908490001600120203460770D
:102F4000002030BD002C0140111100000040014064
:102F5000004401400048014030B5026804460029A1
:102F600006D0042907D0082934D00C2907D134E031
:102F7000D068022301E0D06804239843D060002287
:102F8000206801F057FE174A1548216893108142C6
:102F900008D01548814205D01448814202D0144817
:102FA00081420AD1086A104207D1086A184204D146
:102FB000486C0125ED03A84348642068016A11426A
:102FC00006D1016A194203D101684908490001602C
:102FD000002030BDD0680823CFE7D0681023CCE7AD
:102FE000002C01401111000000400140004401404C
:102FF000004801401CB504460E4884420FD10E49DA
:103000000E480968006800900D48019103680D485A
:1030100002680D4801680D48006801F0A9F90C48E4
:10302000844205D10C490B480860C168491CC16045
:103030001CBD0000A809002008000020040000209A
:103040000000002014000020100000200C000020D0
:1030500068090020840300203C000020704770476E
:1030600070470000F8B502680446D069116893689B
:10307000524D05402E462025002E68D0DE07F60F63
:10308000FF2721370F40374375D0C70706D0CF053C
:1030900004D501271762E26F3A43E267820708D539
:1030A000DA0706D0276802223A62E26F04273A4321
:1030B000E267420708D5DA0706D0236804221A62BD
:1030C000E26F02231A43E267020709D50A462A4043
:1030D000324305D0236808221A62E36F1343E36783
:1030E000020508D54A0106D501222368D2021A62D8
:1030F000E26F2A43E267E26F002A30D0800606D5ED
:10310000880604D5216E002901D020468847E06F4B
:1031100021688968490602D42821084224D0204623
:1031200001F068FF20688168490619D5816840224E
:1031300091438160E06E002812D021494163E06E26
:10314000FDF762FF00280AD0E06E416B06E08606BC
:1031500011D58E060FD5216E1DE020468847F8BD9B
:103160002046FFF77DFFF8BD2046FFF779FF0020DE
:10317000E067F8BDFFE7C60208D55B0206D501206F
:10318000000510622046FFF76AFFF2E7030605D547
:103190000B0603D5616E0029DFD1EAE74006E8D5CA
:1031A0004806E6D51368204640218B4313606567C7
:1031B0000021616600F082FADBE700000F080000E2
:1031C000E14F000810B5040003D0606F002802D062
:1031D00007E0012010BD002170200155204600F0BD
:1031E00027F82420606720680168490849000160C9
:1031F000204601F067FF0128ECD0606A002802D069
:10320000204601F057FE206841680922D20291430E
:103210004160206881682A229143816020680168AA
:10322000012211430160204601F0AAFE10BD0000FA
:10323000F0B587B0044614216846FCF7C9FF424F39
:10324000012226680021414852040223032401255B
:10325000BE421DD18769D6103743876187693740E1
:103260000597466916434661406902AE10400590D5
:1032700060020090019332C609206946C006FEF73D
:103280005BF8002211461B20FEF7CAFB1B201FE043
:103290002F4FBE4220D1C6691643C661C66916408B
:1032A000059646690122120516434661406904915C
:1032B00010400590602003946E4629C66946254853
:1032C000FEF73AF8002211461C20FEF7A9FB1C204D
:1032D000FEF79AFB07B0F0BD1F4A964217D1C569A9
:1032E0000122D2041543C561C5691540059545699C
:1032F000154345614069029110400590032080020A
:1033000004910090039401936946144818E0144A0C
:103310009642DFD18669202216438661866916406F
:103320000596466952041643466140690193104070
:10333000059003204002009002AA32C26946094863
:10334000FDF7FAFFC6E70000003801400010024018
:1033500000440040000C0048004C004000080048B9
:103360000014014000140048FFB50446806F85B08A
:1033700017460E46202875D1002E0AD0002F08D0FF
:10338000A168C001814207D12069002804D1F0075B
:1033900002D0012009B0F0BD204660300290007CD0
:1033A00001285FD00298012101740020E0672220EB
:1033B000A067FEF78DF82546403504902F836F8374
:1033C0000121A0680903FF22884204D12369002B50
:1033D0000CD1254A0AE07F23002809D001221207D8
:1033E000904213D12269002A05D03F22AA8303E02C
:1033F0002769002FFAD0AB83AA8B0192884202D1B1
:103400002069002804D03746002602E00022EDE7BC
:103410000027D0B20390688B00281DD00898009038
:10342000002220212046049B01F066FF002801D0E5
:103430000320AFE72068002F808C07D00399084055
:1034400038707F1C688B401E6883E4E70199084050
:103450003080B61CF6E705E02020A0670299002026
:10346000087497E7022095E7FF010000F0B5836F2D
:10347000202B54D100290AD0002A08D08568DC010D
:10348000A54206D10369002B03D1CB0701D001204F
:10349000F0BD034660331E7C012E40D001261E7411
:1034A0004165014640310A834A830022FF260266B5
:1034B000A54204D10569002D13D11A4D0AE07F27DA
:1034C000002D09D001263607B5420CD10569002D23
:1034D00005D03F258D8307E00569002D01D08F833E
:1034E00002E08E8300E08A83C2672221816701683F
:1034F0008D68012635438D608168A14202D1016942
:1035000000290AD0084901661A7400680168FF2280
:103510002132114301600020F0BD0449F3E702208D
:10352000F0BD0000FF0100006D50000815500008BC
:1035300010B50446084884420CD10848017808A018
:1035400001F060FF02F0AEFC09480449427C2046CD
:10355000FFF78CFF10BD0000280B00202A0600207A
:103560005241573A20202025642C200A00000000F8
:1035700078000020FFB50446406F83B017460D4623
:1035800020285CD1002D0AD0002F08D0A168C001EE
:10359000814207D12069002804D1E80702D0012028
:1035A00007B0F0BD204660300290007C012846D074
:1035B0000298012101740020E06721206067FDF777
:1035C00087FF264640360190378277820120A16826
:1035D0000003814202D12069002802D02F46002535
:1035E00011E000270FE000228021204601F084FE38
:1035F000002815D1002F15D02168387808857F1C48
:10360000708A401E7082708A019B00280698009084
:10361000E9D100224021204601F06EFE002808D0AA
:103620000320BDE728882168C005C00D0885AD1CB2
:10363000E6E720206067029900200874B0E70220C6
:10364000AEE7000070B5436F202B30D100290AD0BF
:10365000002A08D08568DC01A54206D10369002B49
:1036600003D1CB0701D0012070BD034660331E7C1F
:10367000012E1CD001261E74C164014640310A820D
:103680004A8200214166C16721224267A54202D1D8
:103690000269002A09D0074A426619740068016865
:1036A000802211430160002070BD034AF4E702202C
:1036B00070BD0000BD5200087D5200087047000038
:1036C0001FB5FB206946087101F074FE002813D075
:1036D000002000901423202208A101A801F0A2FEDE
:1036E00001A8FCF780FD83B20A20009001AA802186
:1036F0000448FEF71FF8012004B010BD25642564BE
:103700002564000044080020FEE701688A69D2436E
:10371000920701D400228A6200688169C943C907FF
:1037200003D081690122114381617047F7B50446D6
:1037300000680E468069C043C0062BD4202725466A
:10374000403520688069C043800612D5701CF8D0CF
:10375000FDF7BEFE0299401AB04201D8002EF0D10A
:10376000606C384360646F700020A870287001207E
:10377000FEBD21681020C8612068C7612046FFF7A0
:10378000C4FF20684168044A11404160606C042114
:103790000843E7E70020FEBD00E800FEF0B506683C
:1037A000059C7568064F600D384385438805800D7C
:1037B000110408431843204305437560F0BD000021
:1037C000FF63FF03F8B51D4617460E46044609E0A1
:1037D000681C07D0FDF77CFE0699401AA8420BD85A
:1037E000002D09D020688169304688430FD0002021
:1037F000B842EDD00020F8BD616C20200143616427
:10380000403460700020A07020700120F8BD0120BD
:10381000EEE70000F7B500272026054604464035B0
:1038200028E02046029A0199FFF780FF002801D086
:103830000120FEBD20688069C043800611D4206845
:103840008169C943490702D4218D002917D1C66176
:10385000206841680E4A1140416067646E70AF7025
:1038600013E0FDF735FE0299411A0198814208D80C
:10387000002806D020688069C0434007D1D40020CA
:10388000FEBD606C304360646E702F70D0E7000046
:1038900000E800FE70B516460D4604460FE03246BD
:1038A00029462046FFF742FF002801D0012070BDC5
:1038B000FDF70EFE801BA84208D8002D06D0206818
:1038C0008069C0438006EAD4002070BD616C20206E
:1038D00001436164403460700020A0702070E5E70F
:1038E00070B516460D46044611E03246294620467C
:1038F000FFF71CFF002801D0012070BD681C06D016
:10390000FDF7E6FD801BA84208D8002D06D02068F0
:103910008069C0438007E8D4002070BD616C20201E
:1039200001436164403460700020A0702070E3E7C0
:1039300010B50121112002F081FF1420FDF736FCA3
:103940000821132002F07AFF0121112002F076FFF6
:103950001420FDF72BFC1F214E2002F06FFF0120E9
:1039600010BD10B5142000F029F8800703D1032101
:10397000142000F030F810BD10B500F026F88D21AD
:103980002A2000F033F83E212B2000F02FF81E21D2
:103990002D2000F02BF800212C2000F027F87021BA
:1039A000262000F023F84021152000F01FF83D21CB
:1039B000112000F01BF8FFF7D4FF10BD800610B5F2
:1039C000400E803000F03CFF10BD10B50F210120EB
:1039D00000F00CF810BD70B50C460546FFF7EEFF81
:1039E00020430146284600F001F870BD10B580065E
:1039F000400E00F04DFF10BD3EB500212C48009157
:103A000001912A4A0291026008250124856052052D
:103A100004614260C160042242610176417684768D
:103A2000FF22C176C232C2610162014620310C71AF
:103A30008462FDF76FF9002801D0FDF7B7F8012087
:103A40000003019007200290009469461848FDF792
:103A5000AFF8002801D0FDF7A9F869461448009591
:103A6000FDF7A6F8002801D0FDF7A0F80A20009085
:103A700069460F48FDF79CF8002801D0FDF796F83D
:103A80000C20009069460A48FDF792F8002801D002
:103A9000FDF78CF80E20009069460548FDF788F880
:103AA000002801D0FDF782F83EBD0000002401404F
:103AB0007407002008B5084841690122114341619B
:103AC000406910400022009011460920FDF7A8FF30
:103AD0000920FDF799FF08BD00100240F0B587B03E
:103AE00014216846FCF774FBAC4840690121490584
:103AF0000843AA49486148690121490508400590E1
:103B0000A648406989100843A449486148690121D1
:103B1000C90408400590A1484069C90008439F496D
:103B20004861486901218905084005909B48406922
:103B300049110843994948614869012149040840ED
:103B4000059096484069490008439449486148698E
:103B50000121890408400590904840698900084384
:103B60008E494861486901210905084005900122F4
:103B700044218B48FDF7A5FCD5210022C9008848C7
:103B8000FDF79FFC012208218648FDF79AFC0122DF
:103B900008218548FDF795FC012284498448FDF7FA
:103BA00090FC01242403002221468148FDF789FC72
:103BB000002280498048FDF784FCFF210022C131AA
:103BC0007848FDF77EFC112109200122C902C006B8
:103BD000FDF777FC092000222146C006FDF771FCA5
:103BE00076480024012500900294694601950394CB
:103BF0006B48FDF7A1FB72486A4631C269466848C6
:103C0000FDF79AFB68036A4631C269466548FDF7CD
:103C100093FB02266B4F6946624801970096029417
:103C2000FDF78AFB082000900195694602950394F0
:103C30005C48FDF781FB04200090694601970294DF
:103C40005948FDF779FB08200090019569460295D7
:103C500003945548FDF770FB0C206A4631C20920D9
:103C60006946C006FDF768FB5748019040270920C8
:103C7000694600970295C006FDF75EFB8020009024
:103C800052480190092069460294C006FDF754FB92
:103C90000096029403946946454801960494FDF702
:103CA0004BFB4B48009002946946019503944048B1
:103CB000FDF742FB0F20C002009001946946029478
:103CC0003748FDF739FBE8036A4631C26946384890
:103CD000FDF732FB0320000200903B48019069464B
:103CE00002953548FDF728FB3920C001009001946A
:103CF000694602943048FDF71FFB07204003032666
:103D0000009069460396019502942B48FDF714FB39
:103D1000FF20C13000906946039601950294214826
:103D2000FDF70AFB1320C0020090092002946946A7
:103D300001950394C006FDF7FFFA69461A480097FB
:103D400002950194FDF7F8FA0D200090029469465F
:103D5000019503941848FDF7EFFA01946946144859
:103D600000970294FDF7E8FA002211460520FDF7BE
:103D700057FE0520FDF748FE002211460620FDF7FC
:103D80004FFE0620FDF740FE002211460720FDF7FA
:103D900047FE0720FDF738FE07B0F0BD00100240D7
:103DA000001000480008004800140048842000006B
:103DB000000400480DE00000000C0048EC06000084
:103DC00010810000000031100000211000001110CF
:103DD0008430000010B51348114901601249416058
:103DE000002181600161416181610122C161C26084
:103DF0000162FDF7BDFB002801D0FCF7D7FE0021D2
:103E00000848FDF76BFB002801D0FCF7CFFE00212E
:103E10000448FDF788FB002801D0FCF7C7FE10BD61
:103E200000540040F80700200E09002010B5134888
:103E300011490160124941600021816001614161C5
:103E400081610122C161C2600162FDF791FB00281E
:103E500001D0FCF7ABFE00210848FDF73FFB00282E
:103E600001D0FCF7A3FE00210448FDF75CFB00280D
:103E700001D0FCF79BFE10BD005800404408002014
:103E80005D3E302010B509480749016006214160B8
:103E9000FF217631C1608160FDF71EFD002801D051
:103EA000FCF784FE10BD00000030004090080020A8
:103EB00010B511480F490160FF2105314160002113
:103EC0000722816012020161C26001224161520237
:103ED0008261016238224162C26181620722C2624C
:103EE000016308214163FEF72DF9002801D0FCF79A
:103EF0005DFE10BD00300140A008002010B5124842
:103F000010490160FF21053141600121C903816031
:103F100007210902C1600021012201615202826170
:103F20004161016230224162C26181620722C26244
:103F3000016308214163FEF705F9002801D0FCF771
:103F400035FE10BD003800400409002010B596B0C1
:103F500000240F9410941194129413941C2108A817
:103F60001494FCF735F920216846FCF731F92B4809
:103F70002949016004218460416004614461284949
:103F80008461C160FEF7EEFB002801D0FCF70EFE55
:103F9000012000030F900FA92048FEF77FFC0028A6
:103FA00001D0FCF703FE1D48FEF75DFE002801D09E
:103FB000FCF7FCFD139413A918481494FEF7A2FB18
:103FC000002801D0FCF7F2FD6020089032200E940A
:103FD00009900A940B940C940D94002208A90F48A0
:103FE000FEF7D9FD002801D0FCF7E0FD0120009488
:103FF0004003029405900194039404946946079445
:104000000648FEF74FFB002801D0FCF7CFFD034820
:10401000FEF75EFD16B010BD00400140E80900202B
:10402000E703000010B590B01C2108A8FCF7D0F8F9
:1040300020216846FCF7CCF8214820490160002483
:10404000052184604160046144611E498461C1604E
:10405000FEF788FB002801D0FCF7A8FD1848FEF702
:1040600002FE002801D0FCF7A1FD6020089032205C
:104070000E9409900A940B940C940D94002208A9B4
:104080000F48FEF788FD002801D0FCF78FFD0120C6
:1040900000944003029405900194039404946946AB
:1040A00007940748FEF7FEFA002801D0FCF77EFDD2
:1040B0000348FEF70DFD10B010BD000000440140A4
:1040C000280A0020E703000010B590B01C2108A8C2
:1040D000FCF77EF820216846FCF77AF82148204951
:1040E00001600024042184604160046144611E4930
:1040F0008461C160FEF736FB002801D0FCF756FD55
:104100001848FEF7B0FD002801D0FCF74FFD6020F5
:10411000089032200E9409900A940B940C940D94FC
:10412000002208A90F48FEF736FD002801D0FCF751
:104130003DFD0120009440030294059001940394F6
:104140000494694607940748FEF7ACFA002801D0AA
:10415000FCF72CFD0348FEF7BBFC10B010BD0000BF
:1041600000480140680A0020E703000010B596B03F
:1041700000240F9410941194129413941C2108A8F5
:104180001494FCF725F820216846FCF721F82B4809
:104190002949016004218460416004614461284927
:1041A0008461C160FEF7DEFA002801D0FCF7FEFC56
:1041B000012000030F900FA92048FEF76FFB002895
:1041C00001D0FCF7F3FC1D48FEF74DFD002801D09F
:1041D000FCF7ECFC139413A918481494FEF792FA18
:1041E000002801D0FCF7E2FC6020089032200E94F9
:1041F00009900A940B940C940D94002208A90F487E
:10420000FEF7C9FC002801D0FCF7D0FC0120009487
:104210004003029405900194039404946946079422
:104220000648FEF73FFA002801D0FCF7BFFC034820
:10423000FEF74EFC16B010BD002C014068090020AE
:10424000E70300001CB500240F4800940D490194B9
:104250000160FF216C31846041600C498461C16060
:10426000FEF780FA002801D0FCF7A0FC0094694614
:1042700005480194FEF746FA002801D0FCF796FCA9
:104280001CBD000000100040A8090020E70300004A
:1042900010B50C480A490160E12149024160002142
:1042A0008160C16001618161C1610C220162426172
:1042B0004162FEF787FF002801D0FCF777FC10BDB4
:1042C00000380140A80A002010B50C480A490160D6
:1042D000E1214902416000218160C1600161816189
:1042E000C1610C22016242614162FEF76BFF00284E
:1042F00001D0FCF75BFC10BD00440040280B0020FF
:1043000010B50C480A490160E121490241600021D1
:104310008160C16001618161C1610C220162426101
:104320004162FEF74FFF002801D0FCF73FFC10BDB3
:10433000004C0040A80B002010B50C480A49016051
:10434000E1214902416000218160C1600161816118
:10435000C1610C22016242614162FEF733FF002815
:1043600001D0FCF723FC10BD00140140280C0020F4
:10437000FFB597B015460E46FE4C2146FBF793FF5E
:10438000179021463046FBF78EFF189021462846AD
:10439000FBF789FFF84C014619906069FBF783FF32
:1043A000064618992069FBF77EFF0546E068012163
:1043B000C90748401799FBF776FF2946FBF76BFFC3
:1043C0003146FBF768FF0027FF433946FBF7A8FF9C
:1043D0000C9018996069FBF766FF064619992069E9
:1043E000FBF761FFA16805461798FBF75CFF2946BC
:1043F000FBF700FF3146FBF74EFF3946FBF790FF16
:10440000616906461798FBF74EFF00901999E0681E
:10441000FBF749FF05461899A068FBF744FF2946BA
:10442000FBF739FF0099FBF7E5FE3946FBF778FF0C
:10443000216905461798FBF736FF00901899E06848
:10444000FBF731FF02901999A068FBF72CFF029946
:10445000FBF7D0FE0099FBF71EFF3946FBF760FF24
:1044600007461A984000000E07D120984000000E21
:1044700003D121984000000E7ED021990846FBF719
:1044800012FF209900900846FBF70DFF1A99029041
:104490000846FBF708FF0299FBF7ACFE0099FBF713
:1044A000A9FE02F0C7F8014600901A98FBF7FBFE40
:1044B0001A9000992098FBF7F6FE20900099219819
:1044C000FBF7F1FE21900121A068FBF729FF149072
:1044D0000121E068FBF724FF139001212069FBF71D
:1044E0001FFF129001216069FBF71AFF159002214E
:1044F000A068FBF715FF02900221E068FBF710FFB0
:10450000079002212069FBF70BFF04900321E0686C
:10451000FBF706FF089003212069FBF701FF0690D7
:10452000A168A068FBF7BFFE1190E168E068FBF7A7
:10453000BAFE019021692069FBF7B5FE0090616920
:104540006069FBF7B0FE059020991398FBF7ABFE6E
:10455000039001990298FBF7A6FE0E901A99129803
:10456000FBF7A1FE0D9000990298FBF79CFE0D99B8
:10457000FBF740FE0E9900E0EEE0FBF73BFE0399EF
:10458000FBF789FE029021990798FBF78CFE0D90AE
:1045900000990898FBF787FE039001990898FBF7AC
:1045A00082FE109020991498FBF77DFE0F90022157
:1045B0001198FBF7B5FE1690E168FBF774FE0E90BC
:1045C0001A991598FBF76FFE119005990798FBF75C
:1045D0006AFE1199FBF75FFE0E99FBF70BFE0F9930
:1045E000FBF759FE0799FBF756FE1099FBF702FE01
:1045F0000399FBF7FFFD0D99FBF7FCFD0390219953
:104600000498FBF750FE089000990698FBF74BFEC4
:10461000079001990698FBF746FE06902099159899
:10462000FBF741FE0D9005990498FBF73CFE0590C1
:104630001A991498FBF737FE0E9016982169FBF72C
:1046400032FE0E99FBF7D6FD0599FBF7D3FD0D99C8
:10465000FBF721FE0499FBF71EFE0699FBF7CAFD46
:104660000799FBF7C7FD0899FBF7C4FD0490209953
:104670001298FBF718FE059002210098FBF750FEF8
:104680006169FBF710FE00901A991398FBF70BFE77
:10469000069002210198FBF743FE6169FBF703FED8
:1046A0000699FBF7F8FD0099FBF7A4FD0599FBF7C8
:1046B000F2FD01460190FBF7F6FD049900900846D3
:1046C000FBF7F1FD039905900846FBF7ECFD079019
:1046D00002990846FBF7E7FD0799FBF78BFD059963
:1046E000FBF788FD0099FBF785FD01F0A3FF01466C
:1046F00000900298FBF7D7FD029000990398FBF712
:10470000D2FD039000990498FBF7CDFD0490009929
:104710000198FBF7C8FD019002996068FBF7C3FDA3
:104720000C99FBF7BCFD0C9003996068FBF7BBFD8F
:104730003146FBF7B4FD064604996068FBF7B3FD0C
:104740002946FBF7ACFD054601996068FBF7ABFD18
:104750003946FBF7A4FD07460621C9430C98FBF731
:10476000DFFDA168FBF746FDA0600621C943304686
:1047700004E0000039FA8E3C18000020FBF7D0FD61
:10478000E168FBF737FDE0600621C9432846FBF7E7
:10479000C7FD2169FBF72EFD20610621C94338467C
:1047A000FBF7BEFD6169FBF725FD6061616960692A
:1047B000FBF779FD216907462069FBF774FDE16885
:1047C0000646E068FBF76FFDA1680546A068FBF7A9
:1047D0006AFD2946FBF70EFD3146FBF70BFD394616
:1047E000FBF708FD01F026FF05460146A068FBF730
:1047F0005AFDA0602946E068FBF755FDE0602946B8
:104800002069FBF750FD206129466069FBF74BFDED
:1048100060611BB0F0BD10B5FDF786FA10BD7047A2
:104820000EB5694608710A200090012302AA01A969
:104830000248FDF7F1FD6946087A0EBDA008002088
:1048400070B50546104801240078E403012802D021
:10485000022805D016E0002209262146F60602E0CD
:104860000A4E002221463046FCF72BFE2846FFF771
:10487000D7FF0020FFF7D4FF05460122214630462E
:10488000FCF71FFE284670BD40000020000C0048C9
:10489000F8B505460F4801240078E4030E460128C8
:1048A00013D0022810D10C4F002221463846FCF7C5
:1048B00008FE2846FFF7B4FF3046FFF7B1FF01229C
:1048C00021463846FCF7FDFDF8BD002209272146A8
:1048D000FF06EBE740000020000C0048F8B50F464B
:1048E0000B4615460092032104460022C90200F03F
:1048F0001BF82026002812D13B46002280212046AA
:10490000009500F059F8002809D103213B46002208
:1049100049022046009500F007F8002803D0206ED9
:10492000304320660320F8BDF8B51D4617460E46F5
:10493000044610E0032149028E4202D1002F00D12B
:10494000007B681C07D0FCF7C3FD0699401AA842FB
:1049500008D2002D06D0206881683140B942E9D1E3
:104960000020F8BD20684168E02291434160606802
:10497000C11FFD390CD10121A068C903884202D0B2
:104980004911884204D120680168402291430160A6
:104990000120A16A4003814207D121680A6882434D
:1049A0000A6021680A6802430A6001204034607787
:1049B000002020770320F8BDF8B51D4617460E46A7
:1049C000044609E0681C07D0FCF782FD0699401AEE
:1049D000A8420BD2002D09D0206881683046884358
:1049E0002ED00020B842EDD10020F8BD20684168EB
:1049F000E022914341606068C11FFD390CD1012163
:104A0000A068C903884202D04911884204D12068B5
:104A100001684022914301600120A16A4003814264
:104A200007D121680A6882430A6021680A68024344
:104A30000A60012040346077002020770320F8BD11
:104A40000120CFE77047000010B5194C002813D0A3
:104A5000012818D0032822D004280CD100211548A1
:104A6000FEF740FA00211348FEF776FA01225103BF
:104A70001148FCF726FD10BD00211048FEF732FA60
:104A80000122042109E000210D48FEF72BFA002144
:104A90000B48FEF761FA012240212046E9E7002198
:104AA0000848FEF71FFA0122D1020920C006E0E7FC
:104AB00000100048E809002000040048280A0020EF
:104AC000680A00206809002010B5FCF73FFF10BD00
:104AD00030B599B034216846FBF77AFB0024149472
:104AE000159416941C210DA81794FBF771FB0B204D
:104AF0000090012007900190039000040A90022585
:104B00000001102109950B9004910C946846FDF763
:104B100017F907201490169401211595179414A8DD
:104B2000FDF714F8232012940D900F9410940DA803
:104B3000FCF77AFFFDF794F819B030BD704700001C
:104B400010B50248FDF713FF10BD0000E809002072
:104B500010B50248FDF70BFF10BD0000280A002029
:104B600010B50248FDF703FF10BD0000680A0020E1
:104B700010B50248FDF7FBFE10BD000068090020DB
:104B800010B50248FDF7F3FE10BD000068090020D3
:104B900010B50248FDF7EBFE10BD0000A80900208B
:104BA000F0B502681D4B0124A4071D4D984203D0A7
:104BB000A04201D0A84203D17026B2434E683243CE
:104BC000184E194F98420DD0A0420BD0A84209D0E0
:104BD000164CA04206D0B04204D0B84202D0144CC9
:104BE000A04204D103242402A243CC68224380249F
:104BF000A2434C69224302608A68C2620A688262E8
:104C0000984206D0B04204D0B84202D0084A90423E
:104C100001D10969016301214161F0BD002C01400E
:104C200000040040004001400044014000200040DA
:104C30000048014010B5CB06DB0E0121046A994003
:104C40008C430462016A9A401143016210BD30B581
:104C50008468FF252D021B021343AC430B432343FF
:104C6000836030BD826870239A430A4307210A4358
:104C700082607047F0B5026A520852000262056A0B
:104C8000436882697024A24392080C68920014431E
:104C9000022295438A68164E2A43144DA84207D033
:104CA000B04205D0134FB84202D0134FB84206D1DC
:104CB0000827BA43CF681743042297433A46A842CD
:104CC00007D0B04205D00B4DA84202D00A4DA842F1
:104CD00006D103252D02AB434D691D438B692B4340
:104CE00043608461496841630262F0BD002C014069
:104CF00000400140004401400048014070B5026A94
:104D000010239A430262056A42688369732424026D
:104D1000A3430C6824021C4320239D438B681B0182
:104D20002B43124DA84208D11D46CB688026B543BF
:104D30001B012B434025AB4308E00D4DA84205D095
:104D40000C4DA84202D00C4DA84208D10325AD025B
:104D5000AA434D69AD0015438A6992002A43426017
:104D6000846149688163036270BD0000002C0140CA
:104D700000400140004401400048014070B5026A13
:104D8000FF2301339A430262056A4368C2697024B3
:104D9000A24392080C6892001443012252029543E8
:104DA0008A6812022A43124DA84208D11546CA68E1
:104DB000C614B54312022A430515AA4308E00D4D57
:104DC000A84205D00C4DA84202D00C4DA84208D1F3
:104DD00003252D03AB434D692D011D438B691B0139
:104DE0002B434360C4614968C163026270BD000027
:104DF000002C0140004001400044014000480140B7
:104E000030B5026A01231B039A430262046A4268B6
:104E1000C36973252D02AB430D682D021D43012389
:104E20005B039C438B681B0323430C4CA04208D0BC
:104E30000B4CA04205D00B4CA04202D00A4CA04221
:104E400005D10124A403A2434C69A401224342607A
:104E5000C56149680164036230BD0000002C014057
:104E600000400140004401400048014030B5036A61
:104E7000046A6408640004628469F025AC4312018A
:104E800022430A24A3430B438261036230BD30B541
:104E9000036A1024A34303628469036A0F252D0368
:104EA0001203AC432243A024A343090119438261A6
:104EB000016230BD10B5818CC90707D001684A680E
:104EC00001235B049A43836A1A434A60818C8907F1
:104ED00007D501684A6801231B049A43C36A1A4331
:104EE0004A60818C490707D501684A6801239B0401
:104EF0009A43036B1A434A60818C090707D50168FE
:104F00004A680123DB039A43436B1A434A60818C4E
:104F1000C90607D50268916801231B039943836B77
:104F200019439160818C890607D501688A6801233D
:104F30005B039A43C36B1A438A60818C490612D57E
:104F400003685A6801210905046C8A4322435A60A8
:104F5000026C8A4207D10268516803235B059943BA
:104F6000436C19435160818C090607D501684A6872
:104F70000123DB04806C9A4302434A6010BD0000A9
:104F8000F8B500260446C667FCF7A2FA0546206875
:104F90000068124F000709D501212B460022490560
:104FA0002046009700F0A8F900280DD1206800687D
:104FB00040070BD501212B4600228905204600978A
:104FC00000F09AF9002801D00320F8BD2020606786
:104FD000A067603426740020F8BD0000FFFFFF01C9
:104FE00010B5406A0022014640314A834A82FEF7EA
:104FF00037F810BD01680A68FF2321339A430A601D
:1050000001688A68520852008A6020218167002165
:105010000166704710B5014640318B8B846F026882
:10502000222C04D0906908210843906110BD928C15
:10503000446D1A402280426D921C42654A8B521E7A
:105040004A83498B0029F1D101680A68FF23213383
:105050009A430A6001688A68520852008A602021D7
:10506000816700210166FEF763FA10BD10B50146A5
:1050700040318B8B846F0268222C04D09069082108
:105080000843906110BD928C1A40436D1A70426DB6
:10509000521C42654A8B521E4A83498B0029F1D12A
:1050A00001680A68FF2321339A430A6001688A680D
:1050B000520852008A602021816700210166FEF7B4
:1050C00037FA10BD70B5044680682169E26908436B
:1050D0006169002511432268084311685A4B194041
:1050E0000143116021684868032212039043E2687B
:1050F00010434860A169206A2268084391680B2325
:105100001B02994301439160504B01222068504992
:10511000120498420AD1086B8007800F3DD0012805
:1051200025D0022825D0032836D11EE0494B9842CD
:105130000AD1086B0321090408402ED0801A16D02A
:10514000801A16D0801A0EE0434B984213D1096B97
:105150000320800401401DD001208004091A06D0DC
:10516000091A06D0081A002816D1022015E00420DA
:1051700013E0082011E0394988420BD038498842B1
:1051800008D03849884205D03749884202D037498B
:10519000884201D1002000E010200123E169DB03F7
:1051A000334E994226D1002806D0022807D0042881
:1051B00017D0082842D11AE0FCF75CFD13E06168C3
:1051C0002C4A48088018FAF791FF80B2014610393E
:1051D000B14233D82649491C01400007400F08431B
:1051E0001FE0FCF757FD616840004A08EAE7616884
:1051F0004808E7E7002806D0022807D0042813D083
:1052000008281BD116E0FCF735FD0FE061681A4A4B
:1052100048088018FAF76AFF80B201461039B14297
:105220000CD82168C8600AE0FCF734FD61684A08C0
:105230001018EFE761684808C018EBE70125002067
:1052400020666066284670BDF369FFEF00380140B4
:10525000001002400044004000480040004C004064
:10526000005000400014014000180140001C0140A3
:10527000EFFF00000024F40000127A00416F2129A2
:1052800010D1014640314A8A002A0CD0C26C036812
:105290001288D205D20D1A85C26C921CC264488A4B
:1052A000401E4882704701680A6880239A430A605A
:1052B000006801684022114301607047416F212955
:1052C0000ED1014640314A8A002A0AD0C26C0368D6
:1052D00012781A85C26C521CC264488A401E4882E9
:1052E000704701680A6880239A430A600068016871
:1052F0004022114301607047FFB581B005460F465B
:10530000044660350A9E38E0701C36D0FCF7E0F8A1
:105310000499401AB04221D8002E1FD0206801689D
:1053200049072AD5C069C043000526D40120216859
:10533000C002086220680168FF22A1329143016027
:105340002068816849084900816020206067A06763
:10535000E06700202874032005B0F0BD20680168D4
:10536000FF22A13291430160206881684908490009
:10537000816020206067A067EBE72068C16938463C
:10538000884305D0002103988142BDD00020E3E787
:105390000121F8E710B50248FDF764FE10BD0000DA
:1053A000A80A002010B50248FDF75CFE10BD000001
:1053B000280B002010B588B0FB21684601747D24BD
:1053C000E400012304AA80210D480094FCF7B2F9FF
:1053D000032301AA80210A480094FCF723F96846B8
:1053E0000079002807D168464079DB2803D1684658
:1053F0008079FF2802D0002008B010BD0120FBE713
:10540000440800200FB410B503A9044B044A0298C5
:1054100000F054F910BC08BC04B01847116600082D
:10542000700100200FB410B504A9074B02AA03981D
:1054300000F044F9044602A9002000F0DBFC2046FD
:1054400010BC08BC04B01847F55D00082021020C10
:1054500001D010211046020A01D010460839020975
:1054600001D01046091F820801D01046891E42084B
:1054700001D0881E7047081A7047F8B5040C8BB22B
:10548000264682B25E430D0C1046370C5843360454
:1054900080190021794116466E43370C3604801975
:1054A000794126466E438919F8BD30B47446641EAE
:1054B0002578641CAB4200D21D46635D5B00E31897
:1054C00030BC18478307FF22DB0E9A408907090E7C
:1054D0009940002808DB830809489B001B181868BE
:1054E00090430843186070470007000F083883088E
:1054F00004489B001B18D86990430843D861704743
:1055000000E400E000ED00E010B50023054C05E0EC
:1055100022460221491C9142FCDB5B1C8342F7DBE3
:1055200010BD0000B80B000002E008C8121F08C13F
:10553000002AFAD170477047002001E001C1121F14
:10554000002AFBD170470000F0B51FB486B009985F
:10555000089A030D0021024314D05148514A1818EB
:10556000504305141198012810981AD0281A401C8D
:1055700000264D4F4D49009601910490002812DA03
:10558000444211E01198012449A3012801D1109847
:10559000C1430698119A84600360C26041600BB0F9
:1055A000F0BD4042E4E70446210500203F4A001CCC
:1055B00051410391029012E0E00707D032463B468A
:1055C00001990098FAF76AFF0191009032463B4634
:1055D00010461946FAF762FF06460F466410002C83
:1055E000EAD10498039B0028029A0999089806DAE0
:1055F000FAF754FF019B009AFAF750FF05E0FAF71B
:10560000B5FF019B009AFAF7B1FF04460E4600224F
:10561000284BFBF71BF903D80020C043014607E0E5
:105620000022254B20463146FAF786FEFBF7EEF8BE
:10563000102409E0002C0ADB0A220023FAF780FD7F
:10564000079B30321A55641E02460A43F2D11122DA
:10565000641C079B121B1C19119B012B03D00123F7
:1056600008430ED10AE0084304D011201090002016
:10567000119077E71098151A6D1E0BE01098824272
:1056800002DD00236D1C03E0824201DA00236D1E5F
:10569000002BEED0069811998260C16030C07EE781
:1056A00001FCFFFF104D0000000014400000F03F1F
:1056B000300000000000F0430000E03FFFB597B06D
:1056C0000646002518E2252877D100242746FD4903
:1056D000049400E00443761C32780120203A904084
:1056E0000842F7D130782A280ED0022230780146BD
:1056F0003039092916D804990A23594330394018FA
:105700001443761C0490F1E7189802C8049118908D
:10571000002904DA01204003044348420490022097
:105720000443761C30782E2814D10420044370786A
:10573000761C2A2809D11898761C80C8189009E090
:105740000A214F43303FC719761C30780146303963
:105750000929F5D930786C2810D006DC4C281AD0ED
:1057600068280ED06A2817D104E0742813D07A284C
:1057700012D110E00120400504430CE0012109058D
:1057800001E0032109050C437178814203D1012016
:1057900000052418761C761C3078119066280BD0F2
:1057A00013DC58287DD009DC00287BD04528F6D0B2
:1057B0004628F4D047281AD1A5E118E0632835D04F
:1057C000642870D0652812D19DE170286CD008DC67
:1057D0006728F1D069287BD06E280DD06F2806D1BC
:1057E000BAE073282ED0752871D0782859D01A9A2B
:1057F000199990476D1C7EE16002400F022809D084
:1058000003280DD00428189801680DD00D60001DE4
:10581000189070E11898EA1701680D604A60F6E781
:10582000189801680D80F2E70D70F0E718986A4645
:1058300001781172001D18900020507202A800908B
:10584000012005E0189802C8189000200091C0437C
:1058500061070DD5002101E00199491C0191B94270
:1058600012DA8142F8DB009A515C0029F4D10BE096
:10587000002101E00199491C01918142FADB019A62
:105880000099895C0029F5D1019904981A9B471A5F
:1058900021463846199A00F097FA0199401945189F
:1058A0000BE04FE02CE113E04EE000980099007807
:1058B000491C00911A9A199990470198401E01902D
:1058C000401CF2D1214638461A9B199A10E137E064
:1058D0000A200021009001916002410F022907D0A7
:1058E000189A01CA1892C2179446032908D00AE0F0
:1058F0001898C01DC108C90005C91891944607E051
:1059000000B2C2179446042902D140B2C1178C4696
:1059100000226146944506DA0A4600214042914140
:105920008C462D2102E0210504D52B216A461173F6
:10593000012103E0E10701D02021F7E7029155E0C2
:105940000A200AE0102008E0102000900021042026
:1059500004430191082703E00820002101910090F1
:105960006002410F022907D0189A01CA189200223A
:105970009446032908D008E01898C01DC108C90042
:1059800005C91891944603E080B2042900D1C0B241
:1059900000210291210729D51199702906D0009A7A
:1059A0001021019B4A401A4305D00EE040216A466F
:1059B0001173012108E06146014306D030216A4697
:1059C00011731199517302210291009A0821019BD0
:1059D0004A401A430AD16146014301D1610705D506
:1059E00030216A46117301217F1E029111995829B5
:1059F00004D035A10E910DA90D910DE037A1F9E765
:105A00006146019B009AFAF79BFB0E9B8C469B5CC0
:105A10000D9A521E0D92137061460143F0D10D98FC
:105A200005A9081A20300190600703D50120000461
:105A3000844300E001270198874201DD381A00E025
:105A40000020019900904118029809180498401A02
:105A50000490E00306D421461A9B199A049800F09A
:105A6000B3F94519002706E003A81A9AC05D1999F1
:105A700090476D1C7F1C02988742F5DBE0030CD534
:105A800021461A9B199A049800F09EF9451904E0E2
:105A90001A9A3020199990476D1C0099481E009061
:105AA0000029F5DC08E00D980D990078491C0D914E
:105AB0001A9A199990476D1C0199481E0190002966
:105AC000F1DC63E1092801003031323334353637F7
:105AD000383961626364656600000000303132333A
