:020000040800F2
:10000000C0100020D50000081B4F0008293B000845
:1000100000000000000000000000000000000000E0
:10002000000000000000000000000000AD590008C2
:100030000000000000000000234F0008315A0008B3
:10004000E7000008E7000008E7000008E7000008F4
:10005000E7000008AD0D0008B70D0008C10D00084D
:10006000E7000008310D0008E7000008E70000087D
:10007000E7000008D95A0008E95A0008E70000081C
:10008000E7000008F95A0008E7000008E700000848
:10009000A95A0008B95A0008C95A0008E700000820
:1000A000E7000008E7000008E7000008FD6200081C
:1000B0000D630008E7000008E700000804488546D3
:1000C00000F0C6FC00480047497A0008C046C04618
:1000D000C01000200448804704480047FEE7FEE7C0
:1000E000FEE7FEE7FEE7FEE7A55A0008BD000008B0
:1000F00030B50B46014600202022012409E00D46C0
:10010000D5409D4205D31D469540491B2546954047
:1001100040191546521E002DF1DC30BD70B500248B
:100120002546002801DA01244042002901DA012590
:100130004942FFF7DDFFAC4200D04042002C00D026
:10014000494270BDF0B51FB40646002082B0054696
:100150004024019100901BE0019922460F46304651
:1001600000F020F8049A059B801A994110D310469C
:100170001946224600F088FB361A8F410197224625
:1001800001200021009F00F07FFB38184D410090B6
:100190002046641E0028DFDC019B00982946324679
:1001A00007B0F0BD10B5202A04DB0846203AD04045
:1001B000002110BD0B46D340D0402024A21A91400C
:1001C0000843194610BDD2B201E00270401C491E1E
:1001D000FBD270470022F6E710B513460A460446E4
:1001E0001946FFF7F0FF204610BD421C0178401C65
:1001F0000029FBD1801A7047F8B502464A40D40F57
:1002000042004B0052085B089A4202D2024608465E
:1002100011464A0023D0C30D4A00DDB2120EAD1ABA
:10022000202D35DA49020126490AF6058A19002CE3
:1002300000D0524220214F1B1146B9402A411018CC
:10024000C20D9A4221D0002C17D0012D08DCDA050E
:10025000801AD20F8019D207DBB200F040FBF8BD44
:10026000DA05801A012340001B06C01880185A4284
:100270008018CA0F1043490007E04908C20711431C
:10028000DA05801A80194008801800F020FBF8BDBC
:1002900061000122511A001BF7E70122D2075140E9
:1002A000AAE70122D2075040A6E7024670B54A40AD
:1002B000D30FDB0740002DD04A002AD0010E140EC8
:1002C000000212020919400A520A8418E501044684
:1002D0005443000A120A2E045043A4194219200C58
:1002E000C543AA18120C0125AD03521C5219120461
:1002F0007F39240400D0521C104301D44000491E11
:10030000C2B20C06C0092018401C4008802A02D046
:1003100003E0002070BD40084000002900DA002002
:10032000184370BD70B502464A40D50F40004A00E0
:10033000ED0740085208002814D0002A12D0C40D3E
:10034000D30D41020120C0055202490A520AE41AA3
:10035000091812187D34914201D3641C00E0490051
:10036000002C01DA002070BD0023914201D3891ACC
:100370000343400849000028F7D100290AD09142E0
:1003800002D10121C90705E0914201D2012101E01A
:100390000121C943E005C018401900F098FA70BD6A
:1003A000420005D04200120E52428A4201DB002078
:1003B0007047C90508187047F0B507460846584009
:1003C00087B0C00F049048000E4659004008490805
:1003D000BC1A884105D2384631461E4617460B46A0
:1003E00002465800400810434DD0300D03904005A0
:1003F0005900400D490D0590401A0290402873DACB
:1004000018030121000B090508430190049800928C
:10041000002806D01146019A4942002090410091DF
:100420000190029840210A1A0199009800F02CFAD4
:1004300005460C466B4607CB00F036FAC0197141F1
:10044000039A0E0D0023D71756401A467A401643DA
:1004500044D0049A002A2DD0029A012A039A15DC6E
:100460001205C01A914101263605001C7141D20FB8
:10047000059ED2070093019202962A46234600F079
:1004800074FA07B0F0BD38463146FAE71605234A3C
:100490000F46B218C01AB74101210905001C4F418F
:1004A00000187F41114618187941E20F10436D1969
:1004B000644113E0E2076D0815436408C207144362
:1004C000039A01261205C01A91413605001C71419C
:1004D000CE07400830434908C01851412A462346F8
:1004E00000F036FACDE7FFE7049801224000C1177B
:1004F000121A00238B4104983146C417381AA141BF
:10050000EEE730B40124E407634030BC54E730B474
:100510000124E407614030BC4EE700000000E0FF2A
:10052000F0B51FB488B00B99099800244840099988
:10053000C00F490049080991C0070B990090490074
:1005400049080B9109990898A64608431CD00B99B5
:100550000A98084318D0099801244000420D480029
:10056000410D099824050003000B204309900B98C6
:100570000003000B20430B9050181C494018002228
:1005800001901446104605E0002001460DB0F0BD74
:10059000032801DA034600E003239C46C11A0AAE91
:1005A0000AE05F0008ADED5B4F00F75B7D4300277D
:1005B000AA187C41491C5B1E6145F2DD410004AB79
:1005C0005A522104120C0A43240C401C0828DFDB79
:1005D000019802900099704601910090059B049A41
:1005E0000799069800F0C1F9D0E700000DFCFFFF65
:1005F000F0B50C465C4085B0E40FE40703944C0072
:10060000002664085900944649080246029622438F
:1006100021D062460A431ED06200570D4A000E03E5
:100620002303550D012402462C492405781B1B0B7E
:10063000360B401823432643614600901C46501A4F
:10064000B44103D30098401C009002E09218009837
:100650005B41002803DA0020014605B0F0BD002010
:10066000012109050746864611E064461D46141B14
:10067000B54106D36546521BB341744607430C434C
:10068000A646CD0740084908284392185B41054615
:100690000D43EAD11046184313D060461946504026
:1006A0007140084306D06046101AB34106D20122B9
:1006B000002306E000220123DB0702E00122D243EF
:1006C0005310009874460105381C6141029C039D3B
:1006D0000019694100F03CF9BFE70000FD0300008C
:1006E00070B54B005B0803430BD04B005C0D00263C
:1006F00033466542B341D417AD1AA34102DB002053
:10070000014670BD12053018514170BDC217C10FAE
:10071000504010B54018CA079623002100F0DFF8BA
:1007200010BD10B500229623114600F0D8F810BD78
:100730000EB5C217C10F5040CA0740180021054B23
:100740000293019200910A460B4600F00EF903B0A5
:1007500000BD0000330400000EB5054902910021E0
:1007600000910A460B46019100F0FFF803B000BD6E
:1007700033040000410040020122400AD205090E64
:1007800080187F2901DA00207047962903DC962221
:10079000511AC84070479639884070474A0009038B
:1007A0000123090B1B051943094B10B5520D9A4241
:1007B00001DA002010BD064B34339A4203DC9A1A4A
:1007C000FFF7F0FC10BD03495118884010BD000030
:1007D000FF030000CDFBFFFFC20FD207400040081F
:1007E0000BD0C10D0723DB01C91840020905400ADF
:1007F0001143C2084007114370470020014670476B
:1008000010B5002904DB0124E40740428C41214655
:10081000002B04DB1C460123DB075242A341994213
:1008200000D1904210BD0000CB0FDB07490010B58E
:10083000490802460A4307D00A0D07240903E401C8
:10084000090B121B002A01DC002010BDC900440F57
:100850000C43C100E018D205801800F038F810BD34
:100860000122D207002800DB101A002900DB511AF0
:10087000814270470122D207002800DB101A0029AC
:1008800000DB511A8842704710B5202A04DB01466C
:10089000203A9140002010BD914020239C1A03462D
:1008A000E3401943904010BD10B5202A06DBCB175A
:1008B0000846203A1041C1170B4306E00B4613418E
:1008C000D0402024A21A91400843194610BD0029A7
:1008D00004DA401C490001D140084000704770B460
:1008E0000024050C05D11024000402D1002921D0D8
:1008F0001124050E01D100020834050F01D10001B9
:10090000241D850F01D18000A41C002801DB4000BC
:10091000641C002908D020252E1B0D46F540A1405F
:1009200000D001212943084301061B1B000ADB1DDF
:1009300002D5002070BC7047DB051818801800290C
:10094000F8DA401C4900F5D170BC400840007047FF
:1009500010B5002B08DA0024401C614192185B415D
:100960001A4301D14008400010BDF0B51FB482B059
:1009700005460C0003D0084605F022FD02E005F014
:100980001FFD20300246009021462846FFF77CFFDD
:10099000049B059A04460F4618431143084314D09C
:1009A000184610431BD0009840210A1A1846059992
:1009B000FFF7F8FB05460E46009A05990498FFF7E5
:1009C00063FF084305D0012004E02046394607B004
:1009D000F0BD0020C11705430E432C433743009957
:1009E0000E986305401A7905E40A00220C43FD0ABB
:1009F0000A3002D500200146E9E7010510196941D6
:100A00000C9C0D9D00196941FFF7A2FFDFE7000074
:100A10004A0009030123090B1B0519430A4B10B5B2
:100A2000520D9A4202DA0020014610BD064B3433C3
:100A30009A4203DC9A1AFFF7B5FB10BD034BD2189C
:100A4000FFF722FF10BD0000FF030000CDFBFFFFFA
:100A5000064C0125064E05E0E36807CC2B430C3C11
:100A600098471034B442F7D3FFF72CFBD48E00081C
:100A7000F48E000870B5002801DC002070BD410034
:100A800040020126400AF605090E8019CA0701D165
:100A90004000491E4D10002211463F353346CB40E1
:100AA0009B18D418844201D8001B1A464000491CE8
:100AB0001729F3DD5100814202D20021C94300E031
:100AC0000021E8058018FFF702FF70BD70B58C1893
:100AD0000578401C6B075B0F01D10378401C2A117D
:100AE00006D10278401C03E006780E70401C491CB9
:100AF0005B1EF9D12B0705D40023521E0DD40B70B9
:100B0000491CFAE70378401CCB1A921C03E01D78BD
:100B10000D70491C5B1C521EF9D5A142D8D3002090
:100B200070BD10B50146406A826B50231A420AD14B
:100B3000816B01225202114381630168CA68120568
:100B4000920F05D020E0006B026B0846904710BD65
:100B5000827E002A18D10A68120715D58A685307C1
:100B60000122002B09DB4B680C24A3434B60816BF3
:100B7000130299431143816306E0816B20231943DB
:100B80008163C16B1143C16300F0D0F910BD10B592
:100B9000406A816B402211438163C16B042211437F
:100BA000C16300F0DEF910BD10B5406A00F0D8F95D
:100BB00010BD0000F8B50446002000902068816850
:100BC0008907890F012905D10168C9072CD1C1689E
:100BD000090429D48168154A1026114001250029ED
:100BE00015D1816829438160124811490068FFF7D7
:100BF0007FFA00E0401E00900028FBD100F002FECA
:100C000007460CE000F0FEFDC01B022807D9A06BD0
:100C10003043A063E06B2843E0630120F8BD206807
:100C20000068C043C007EDD10020F8BD1700008068
:100C300040420F005C010020F0B5054600208C46C4
:100C40000C4E034613E02C780022E707C107FF0F84
:100C5000C90F8F4202D04008704000E04008521C8B
:100C60006408D2B2082AF0D35B1C9BB26D1C6345AA
:100C7000E9D3F0BD01A00000F8B51DA005F07CFB94
:100C80000125264E2D032946304600F0AFFD0028F1
:100C90002DD000F0B7FD224C2063032007F088FD23
:100CA000204F17E012A005F067FB1F4801F026F85F
:100CB0000121032007F0F0FE00F0A4FD216B401A93
:100CC000B84207D90021194802F00AFB032007F0B7
:100CD00023FE05E02946304600F088FD0028E1D1DA
:100CE0000021124802F0FCFA032007F015FEF8BDBF
:100CF000436865636B696E6720696620776520616C
:100D00007265206174207069636B20706F73206F4F
:100D100072206E6F74200D0A000000000010004861
:100D200024010020B80B0000A40800207C0900204A
:100D300010B5024800F0B4FA10BD0000C80700204A
:100D400010B5044600680C49884208D20B49401887
:100D50001421FFF7CDF980002064094809E0064915
:100D6000494240181421FFF7C3F98000206402486B
:100D70000838E06310BD000008040240F8FFFDBF22
:100D80000000024030B5056C0124AC40C56B6C60BE
:100D9000046863604368102B036803D0996000689F
:100DA000C26030BD9A600068C16030BD10B50220DD
:100DB00000F050FC10BD10B5042000F04BFC10BD3D
:100DC00010B5402000F046FC802000F043FCFF20DE
:100DD000013000F03FFC0120400200F03BFC10BD60
:100DE0007047000010B5002002F02EFE034CA071E9
:100DF000012002F029FEE07110BD0000180500205E
:100E0000F8B50025044620340095227D012A3BD008
:100E10000122227503689E68760776D43F4F4E689C
:100E2000BE4254D09E6A0F78BA4016439E62012398
:100E3000C26A1B079A421FD0012A1DD0022A1BD06A
:100E4000032A19D0042A17D0052A15D0062A13D050
:100E5000072A11D002688B6856697607760FB3426D
:100E60000AD05369DB08DB005361006842690B7AE2
:100E70005B075B0F1A4342610868102806D01128EF
:100E800004D0122802D045E00220F8BD244A93681D
:100E9000102809D011280AD00120000603439360CE
:100EA0000868102806D035E00120C005F6E70120CB
:100EB0008005F3E71C481B490068FFF719F90A2170
:100EC000484300E0401E00900028FBD122E0986AD1
:100ED0000E78B240904398620868102803D0112819
:100EE00001D0122816D10E498A68102807D011287F
:100EF00008D00120000682438A600BE005E0012053
:100F0000C005F8E701208005F5E7816B2022114339
:100F100081630125002020752846F8BD01100000DE
:100F20000027014040420F005C01002010B50A4834
:100F30000A4A4179152905D81368C46A1B19491C46
:100F4000C36200E0FF2141718179012903D1118938
:100F5000C1820021817110BD2401002058060020AB
:100F600070477047F8B500260446002805D0A06BEE
:100F700025462035002802D007E00120F8BD0020DA
:100F8000E0632875204600F0A9F8A06B1022C00687
:100F9000002870DB2068816849076CD4A16B1301BD
:100FA000994302231943A16381688907890F0129A5
:100FB00005D10168C9070FD1C16809040CD4C16803
:100FC00018239943A3681943C160206801696368C5
:100FD00089008908194301612068C1683D4B1940A7
:100FE000C160207E617E8003C9030843A17E4B035C
:100FF0001843A36A012B02D001231B0300E0002346
:101000001843E36818432369022B09D000231843CF
:101010002B79E57E5B0018430123012D02D00AE005
:101020000423F4E7002927D0A16B20252943A163DD
:10103000E16B1943E163E1690D46FF3DC23D02D01A
:10104000256A294308432168CD680543CD60012501
:10105000E16A2D07A94213D0012911D002290FD02E
:1010600003290DD004290BD0052909D0062907D062
:10107000072905D010E028E0012109040843DAE738
:1010800021684D69ED08ED004D6121684D69A78D1E
:101090007F077F0F3D434D612168C9680E4D294090
:1010A000814207D10020E063A06B80088000401CD3
:1010B000A06308E0A06B022188431043A063E06BAB
:1010C0001843E06301263046F8BDA06B1043A063CF
:1010D000F8E700001902FEFFE7FF3F83F0B587B095
:1010E000054614216846FFF775F82D49286888429F
:1010F00054D12C4988694E15304388618869304045
:1011000005904A69B00202434A614A690240059269
:101110004A69801002434A614A69024005924A695D
:10112000400002434A6149690324014005911520AA
:1011300000276A4691C269461B4800F097FA0220D0
:101140006A4691C209206946C00600F08FFA012064
:101150006A4691C26946154800F088FA1448154C51
:1011600081C427608020A66060600001E0602020CC
:10117000676120610F48083C00F0E0F8002801D0CA
:10118000FFF72EFE0A487830816A09090901816259
:10119000816A0122114381622C63656207B0F0BD50
:1011A00000240140001002400008004800040048EC
:1011B00008000240C8070020F7B504460068002573
:1011C000806840073DD426462036307D01280AD06D
:1011D00001273775607E012807D02046FFF7EAFC1B
:1011E000050002D02EE00220FEBDA06B164908408B
:1011F000FF2101310843A0630020E0633075216BBB
:1012000012488862216B1248C862216B114808633A
:1012100021681C2008602068416810221143416049
:101220002068C1683943C1602168206B4031029B4E
:10123000019A00F0ADF820688168042211438160B2
:1012400000E002252846FEBDFEF1FFFF230B00084B
:10125000A90B00088F0B000870B50024014620314F
:101260004A78022A03D004218163012416E002682F
:1012700013680E25AB431360026813685B085B00BC
:1012800013600122056C1346AB40C56B6B604A705E
:1012900000220A70416B002900D08847204670BDAB
:1012A000F0B4C16B0D6801680C680422066C13462B
:1012B000B3402B420DD063070BD50B689B0602D4BD
:1012C0000B6893430B60016C8A40C16B4A60C16A32
:1012D00019E00227B74002462F4001232032002F99
:1012E00015D0A70713D50C68A40604D40C680A25EA
:1012F000AC430C605370036C02219940C36B59607E
:1013000000211170816A002916D0F0BC0847082717
:10131000B7402F4210D024070ED50C680E25AC43E1
:101320000C60046C1946A140C46B61608363537008
:1013300000211170016BE6E7F0BC704770B5040046
:1013400021D00221204620300546417022681168D4
:101350000E48A3680140606826691843E368334378
:10136000184363691843A3691843E36918430843A2
:1013700010602046FFF7E4FC0021A16301206870A3
:101380002970084670BD012070BD00000FC0FFFF2E
:10139000F8B504468C46203001780025012909D093
:1013A0000126067041780027012905D00770022523
:1013B0002846F8BD0220F8BD02214170A7632068CD
:1013C000016849084900016061462046FFF7DAFCE0
:1013D000E06A00282068016802D00E22114306E06E
:1013E0000A221143016020680168042291430160D0
:1013F0002068016831430160DAE7000070B50446F7
:1014000000F000FA0546601C02D004480078241859
:1014100000F0F8F9401BA042FAD370BD6001002033
:10142000F0B500225DE0012393401C460C4057D0EC
:1014300096082E4DB6007519AF68AC4695072E0F6D
:101440000F25B540AE463D400927FF06B84201D101
:10145000002714E0264FB84201D101270FE0254FA5
:10146000B84201D102270AE0234FB84201D1032735
:1014700005E0224FB84201D1042700E00527B7401C
:10148000AF4212D11E4D2E68A6432E606E68A64351
:101490006E60AE68A643AE60EE68A643EE60654639
:1014A000AD687446A5436446A560056856000324EC
:1014B000B440A5430560D508AD002D182E6AAC4692
:1014C0005507EF0E0F25BD40AE4365462E62C56839
:1014D000A543C56045689D4345608368A343836019
:1014E000521C0B46D3409ED1F0BD000000000140CD
:1014F0000004004800080048000C004800100048A4
:1015000000040140F8B5FF2100253F4E01313F4C5A
:1015100080280FD0884269D100F074F9E169401A3F
:1015200046283DD900F06EF9E0612078384F012857
:1015300037D039E000F066F9A169401A7D21090130
:1015400088422DD900F05EF90246A0616078314FE3
:10155000012802D13878401C387039782EA004F068
:101560000BFF304938780978884219D3012004F0FC
:101570001FFA072000F018FC65703D7000F042F97A
:10158000A0610420307028480A2300880322011239
:101590007170B0701C49254802F0B0F906F0A6FF42
:1015A000F8BD3878401C387021483978007881427D
:1015B000F6D3002004F0FCF9072000F0F5FB13201F
:1015C000307019480A230088032201127170B0702C
:1015D0000D49164802F092F906F088FF257000F0D8
:1015E00011F9E06112483D700570F8BD0228FCD188
:1015F000207A012805D0012020720EA004F0BCFE44
:10160000F8BD25720FA0F9E788060020240100200C
:101610001401002013010020633A256420743A0964
:1016200025640A0015010020920000203C0B0020D8
:1016300016010020204261747465727920696E0D74
:101640000A0000002042617474657279206F75741D
:101650000D0A000010B504494A69024202D04861EF
:10166000FFF750FF10BD000000040140FCB500234F
:101670000124A6E027462A469F403A4073D04D6891
:10168000012D05D0022D03D0112D01D0122D16D120
:1016900085680326AC465D00AE46AE406546B54360
:1016A000AC46CE687546AE4065462E4386604668B9
:1016B0000D79BE43ED06ED0F9D4035434560C6688C
:1016C0005F000325BD40AE46AE4335468E68BE4042
:1016D0002E43C6604E68022E01D0122E14D1DE08B1
:1016E000B60036180196366A5D07B446EE0E0F2531
:1016F000B54000966646AE43B4460D69009EB540BF
:1017000066462E43019D2E6206687546AE430D79EE
:10171000AD07AD0FBD40354305604D68ED004FD5B9
:101720002B4DAE692643AE61AD699E08ED07ED0F06
:101730000095284DB6007519AC46AD689E07360F6A
:101740000F27B740BD430927FF06B84201D1002744
:1017500015E0214FB84201D1012710E01F4FB842D8
:1017600002D102270BE02BE01D4FB84201D1032725
:1017700005E01C4FB84201D1042700E00527B7401F
:101780002F436546AF60184E35684F689543FF0399
:1017900000D51543356075684F689543BF0300D584
:1017A00015437560B5684F689543FF0200D5154332
:1017B000B560F5684F689543BF0200D51543F560E5
:1017C0005B1C0A681546DA4000D053E7FCBD0000F8
:1017D00000100240000001400004004800080048DA
:1017E000000C004800100048000401400069084057
:1017F00000D001207047002A01D0816170478162CA
:1018000070470000014880687047000060010020B8
:1018100070B5024640325378202B1CD11378012B2F
:1018200019D00123137024245470046825689D4343
:101830002560046825681E03B54325600468256893
:101840000D43256000680168194301602020507035
:101850000020107070BD022070BD70B5024640328D
:101860005378202B1BD11378012B18D0012414702E
:101870002423537003681D68A5431D6005682B6809
:101880000F263602B3430902194329600068016834
:1018900021430160202050700020107070BD022094
:1018A00070BD70B5040014D0242120464030054698
:1018B000417020680168490849000160204600F035
:1018C00075F90021616469702163A9702970084667
:1018D00070BD012070BD000070B5040006D0254623
:1018E000403568780026002802D005E0012070BD50
:1018F0002E70204600F086F9242068702068016868
:101900004908490001600F21606809068843216881
:10191000086121688A680120C00382438A60E16807
:101920000129A16808D02122920211432268916006
:10193000E168022902D005E00143F7E701212268AE
:10194000C902516021684A680F4B1A434A602168F6
:10195000CA688243CA60616920690843A1690902B3
:1019600008432168C860216AE0690843216808606B
:1019700020680168012211430160666420206870BC
:101980002663AE70002070BD00800002FFB50546E2
:1019900004464035687881B0202878D1287801281D
:1019A00075D001202870FFF72DFF07460122009017
:1019B0001923D103204602F015F900283CD122203A
:1019C00068701020A870002666640398606204980E
:1019D00060856663618D2F48FF2903D9FF22228528
:1019E00000903BE0618D218500903DE0204602990A
:1019F00002F0E4F816E002F01DF900281CD120687E
:101A0000406A616A0870606A401C6062208D401EF6
:101A100081B22185608D401E6085608D002801D0D7
:101A200000290CD0608D0A9900283A462046E2D160
:101A300002F040F900281CD0012005B0F0BD00974D
:101A40000022802120460A9B02F0CCF80028F3D126
:101A5000608DFF2805D9FF222285009601231B06F1
:101A6000C4E7608D20850096208D0123C2B25B06FD
:101A7000BCE721682020C86121684A68064B1A40EB
:101A80004A606870AE702E700020D6E7FFE7022033
:101A9000D3E700000024008000E800FEFFB5054603
:101AA00004464035687881B0202878D1287801280C
:101AB00075D001202870FFF7A5FE0746012200908F
:101AC0001923D103204602F08DF800283CD12120B3
:101AD00068701020A87000266664039860620498FD
:101AE00060856663618D2F48FF2903D9FF22228517
:101AF00000903BE0618D218500903DE020460299F9
:101B000002F05CF816E002F0FBF800281CD1606AD5
:101B1000216800788862606A401C6062608D401EA7
:101B20006085208D401E80B22085618D002901D006
:101B300000280CD0608D0A9900283A462046E2D150
:101B400002F0B8F800281CD0012005B0F0BD0097C5
:101B50000022802120460A9B02F044F80028F3D19D
:101B6000608DFF2805D9FF222285009601231B06E0
:101B7000C4E7608D20850096208D0123C2B25B06EC
:101B8000BCE721682020C86121684A68064B1A40DA
:101B90004A606870AE702E700020D6E7FFE7022022
:101BA000D3E700000020008000E800FE10B50068C8
:101BB000104A1149114C90420AD1C869E20290437F
:101BC000C86189152046FFF72BFC012149020DE071
:101BD0000B4A90420DD1C869012292059043C86119
:101BE00011132046FFF71CFC0121C9022046FFF714
:101BF00017FC10BD005400400010024000040048D3
:101C000000580040F0B587B0044614216846FEF73E
:101C1000E1FA1D4F266801221C4C92041225012175
:101C200003231B48BE4212D166691643666166698A
:101C3000029116401A0205960491019503930092B1
:101C40006946FFF713FDE1690120400515E0114FDA
:101C5000BE4217D1666916436661666902911640F5
:101C6000032292020596049101950393009269461E
:101C7000FFF7FCFCE169012080050143E161E169B6
:101C80000140059107B0F0BD005400400010024033
:101C9000000400480058004070B504000FD02168CF
:101CA0001348086021681348086003CC416020682D
:101CB000083C21688860FFF7A5FD054608E0012083
:101CC00070BDFFF79FFD401B302801D9032070BD78
:101CD0002068C0680028F4D120680269E1688A425F
:101CE00001D0016101E004490160002070BD0000E5
:101CF000CCCC000055550000AAAA0000006802499B
:101D00000160002070470000AAAA00000248816814
:101D100002788918816070476001002010B506487C
:101D20000168102211430160002000F007F800F064
:101D300027F8002010BD00000020024070B50446C6
:101D40000D4D7D202978C000FEF7D2F901460B48E1
:101D50000068FEF7CDF900F06BFE002809D1042CD5
:101D600007D200222146401E00F03AF800206C60A5
:101D700070BD012070BD0000600100205C010020EA
:101D800008B50848816901221143816181691140C8
:101D90000091C26901040A43C261C0690840009011
:101DA00008BD000000100240002809DBC106C90E72
:101DB0000120884003490860BFF34F8FBFF36F8F46
:101DC0007047000080E100E0002805DBC106C90E75
:101DD00001208840014908607047000000E100E0F0
:101DE00010B504F02DFB10BDF8B504460068434D56
:101DF000C00352D5E8690026C00007D4E969280469
:101E00000143E961E9690140012600913C4801680C
:101E1000C90510D40168821511430160FFF7F2FC77
:101E2000074604E0FFF7EEFCC01B642824D83448C2
:101E30000068C005F6D5286A03273F02384020D045
:101E40006168394081421CD0286A2A6AB84301215E
:101E500009040A432A622A6A8A432A622862C0075E
:101E60000FD0FFF7CFFC009008E0FFF7CBFC009904
:101E7000411A2448814201D90320F8BD286A80070D
:101E8000F3D5286A6168B84308432862002E04D05D
:101E9000E869012109078843E8612078C00705D077
:101EA000286BA16880088000084328632078800799
:101EB00006D5286B032109048843E1680843286399
:101EC0002068400306D5286B0321890488432169D3
:101ED000084328632078800605D5286B10218843A5
:101EE0006169084328632088400505D5286B402197
:101EF0008843A169084328630020F8BD0010024010
:101F0000007000408813000070470000F8B50F46CD
:101F100006005FD03D4D2868C007C00FB84209D207
:101F2000286840084000384328602868C007C00F70
:101F3000B8424FD13068364C81070CD5400704D5E4
:101F4000606807210902084360606068F0218843E7
:101F5000B168084360603078C0072CD070680128F1
:101F600010D0022811D0032812D021688907002937
:101F700030DA61688908890001436160FFF742FC3B
:101F8000009011E021688903F1E721688901EEE7FB
:101F9000616BC903EBE7FFF735FC0099411A1D4857
:101FA000814201D90320F8BD60680C2108407168A6
:101FB00089008842EFD12868C007C00FB8420BD90A
:101FC000286840084000384328602868C007C00FD0
:101FD000B84201D00120F8BD3078400706D56068CE
:101FE000072109028843F1680843606000F032F875
:101FF0006168094A0906090F515CC8400749086031
:102000000020FFF79BFE0020F8BD000000200240EA
:102010000010024088130000BC8E00085C01002004
:10202000034801680122D204114301607047000097
:10203000001002400448054900684968044A4905FF
:10204000490F515CC84070475C01002000100240FD
:10205000CC8E000830B519A30FCB89B06C460FC4E5
:102060001AA30FCB0FC41D4A51680C200B46034026
:102070001B48042B05D01B4D082B04D00C2B00D182
:10208000284609B030BD8B021B0F6C46E45CD26A57
:1020900004AB1207120FC9039A5C890F022901D001
:1020A000032901D0002301E0002328460021FEF788
:1020B00049F8214604F09BF9E3E700000203040518
:1020C000060708090A0B0C0D0E0F1010010203047D
:1020D00005060708090A0B0C0D0E0F100010024030
:1020E00000127A00006CDC0210B5044CA0680006F7
:1020F00003D5FFF709FF8020A07210BD0010024039
:10210000FEB5040070D02078F94EFA4DC00748D0D3
:1021100068680007800F01281FD068680007800FDB
:10212000022804D16868C003800F022815D06168B6
:10213000012919D001208004002901D0052917D0D8
:102140002968B143296029688143296060680028B3
:102150001BD0FFF757FB074613E02868800320D504
:1021600060680028CED01CE0286830432860EDE786
:10217000296801432960F7E7FFF744FBC01B642887
:1021800070D828688003F7D50BE0FFF73BFB0746C4
:1021900004E0FFF737FBC01B6428F1D828688003F0
:1021A000F7D4207880073FD568680007800F14D0E7
:1021B00068680007800F022804D16868C003800F98
:1021C00001280AD0E068002828681ED001210843B1
:1021D0002860FFF717FB07460CE0286880070CD53E
:1021E000E068012800D108E080E1FFF70BFBC01B8D
:1021F0000228C5D828688007F7D52868F8218843C1
:102200002169C900084328600EE0400840002860AA
:10221000FFF7F8FA074604E0FFF7F4FAC01B0228BC
:10222000AED828688007F7D42078000723D5E06966
:102230000028686A0FD0012108436862FFF7E2FABC
:10224000074604E0FFF7DEFAC01B022898D8686A48
:102250008007F7D50FE0400840006862FFF7D2FA28
:10226000074605E0C3E0FFF7CDFAC01B022887D878
:10227000686A8007F7D4207804274007002861DACD
:1022800000200190E869C00008D4E969B80601435C
:10229000E961E969014001200091019096480168D7
:1022A000C90511D40168821511430160FFF7AAFA2C
:1022B000009005E0FFF7A6FA0099401A642898D824
:1022C0008D480068C005F5D5A06801280AD000280F
:1022D00001D0052811D0286A400840002862286AE9
:1022E000B84302E0286A012108432862A068002858
:1022F00012D0FFF787FA00900AE0286A3843286274
:10230000F0E7FFF77FFA0099411A7C4881426ED8C6
:10231000286A8007F5D50DE0FFF774FA009006E013
:10232000FFF770FA0099411A744881425FD8286A11
:102330008007F5D40198002804D0E969012000073E
:102340008143E9612078C00635D5606901280CD049
:10235000401D686B24D038436863686B40084000B8
:102360006863FFF74FFA074622E0686B38436863FB
:10237000686B012108436863FFF744FA074604E0ED
:10238000FFF740FAC01B022831D8686B8007F7D5E9
:10239000686BF8218843A169C900084368630AE0B3
:1023A000B8436863F4E7FFF72DFAC01B02281ED874
:1023B000686B8007F7D42078800637D568680007F7
:1023C000800F032814D068680007800F022804D10A
:1023D0006868C003800F03280AD0206A0028686B51
:1023E00016D030436863FFF70DFA06460CE062E052
:1023F000686BC0031AD5206A012877D116E0FFF771
:1024000001FA801B022856D8686BC003F7D50DE08F
:10241000B0436863FFF7F6F9064604E0FFF7F2F908
:10242000801B022847D8686BC003F7D4606A002875
:1024300066D069680907890F022942D0012636064D
:102440000228286805D0B0432860FFF7DBF904466E
:1024500033E0B0432860FFF7D5F9074604E0FFF703
:10246000D1F9C01B022826D828688001F7D4E86A71
:10247000216B000900010843E862A16AE06A084391
:1024800069687B22D203914308436860286830431F
:102490002860FFF7B7F9044604E0FFF7B3F9001B23
:1024A000022808D828688001F7D529E0FFF7AAF9A3
:1024B000001B022801D90320FEBD28688001F5D445
:1024C0001EE00128F8D06868E96A0322D203A36AF3
:1024D00002409A420AD10907226B090F914205D1A5
:1024E0000F2189040840E16A884209D00120FEBD1D
:1024F000000001000010024000700040881300003E
:102500000020F4E7F8B5040007D000262546403542
:10251000A662687F002802D005E00120F8BD2E7772
:10252000204600F04BF802236B77206801684022B8
:10253000914301600721E0680902884201D9002225
:1025400001E0012212030F273F02B84202D0884265
:1025500000D0A662276B002F05D1884201D92363E2
:1025600001E001202063A168606863690843216974
:10257000194308430123A1695B0219400843E1693B
:102580000843216A0843A16A084321680860616B17
:10259000606AA36908431B0C0427E1683B401943A8
:1025A00008432168104348602068C1697A0291435A
:1025B000C1612666012068770020F8BD30B587B07C
:1025C000044614216846FDF705FE24681D4D0021D0
:1025D0001D4802230322AC4216D185698414254389
:1025E000856185692540059545695C0425434561FC
:1025F0004069029120400590382004910090019399
:1026000003926946114819E0114DAC4218D1C569D1
:1026100024142543C561C569254005954569A40174
:1026200025434561406902912040059012200090A9
:10263000012004900193039269460648FFF716F8BB
:1026400007B030BD003001400010024000040048D7
:1026500000380040000C0048FFB5054604464035F0
:10266000287F002781B01646012809D0012028774D
:10267000FFF7C8F80090687F012804D00227A5E082
:10268000022005B0F0BD0298002870D0002E6ED058
:1026900003206877002020660299A163A687E68759
:1026A0002064A880E8802065E0640121A068C90357
:1026B000884205D12068016801229203114301601C
:1026C00020680168490603D4016840221143016073
:1026D0000720E16800028142606826D9002801D005
:1026E000012E1ED1A06B21680088C86006E020681A
:1026F0008168890709D5A16B0988C160A06B801C1E
:10270000A063E08F401EE0870BE0FFF77BF80099A5
:10271000411A0498814202D3401C02D04CE00028A8
:102720004AD0E08F0028E2D139E0002801D0012E04
:1027300032D1E08F0128A06B03D921680088C860DE
:102740000FE021680078087314E0E08724E0206837
:102750008168890714D5E18F0129A16B08D90988FF
:10276000C160A06B801CA063E08F801EEDE72CE0B1
:1027700009780173A06B401CA063E08F401EE4E762
:10278000FFF740F80099411A0498814202D3401C97
:1027900002D011E000280FD0E08F0028D7D12046CA
:1027A000009A049903F04EF8002801D020202066FA
:1027B000A068002802D005E0032707E02068C16870
:1027C00080680090206E002800D0012701206877E3
:1027D00000202877384654E7FFB5044683B001202F
:1027E00001900020254640350090287F0C9F1E4612
:1027F00001280FD001202877FFF704F80290687FA6
:10280000616801280DD0CA1FFD3A08D1A1680029CE
:1028100005D102E0022007B0F0BD042801D002205B
:1028200004E10498002822D0059800281FD0002E2B
:102830001DD0687F042801D005206877002020661D
:1028400005992164EE80AE800499A163E687A6878E
:10285000E06420650723E1681B02994201D8012E3C
:1028600007D92068416801221203914306E0012044
:10287000DCE02068416801221203114341602068B6
:102880000168490603D40168402211430160E168F0
:102890006068994244D9002801D0012E39D1A06B3B
:1028A00021680088C860A06B801CA063E08F401E78
:1028B000E0872EE020688168890710D5E18F002924
:1028C0000DD0019901290AD1A16B0988C160A06BC3
:1028D000801CA063E08F401EE087002001902068EC
:1028E0008168C9070DD0E98800290AD0C068216C29
:1028F0000880206C801C2064E888401EE88001204D
:102900000190FEF77FFF0299401AB84201D3781C6C
:1029100071D1E08F0028CDD1E8880028CAD173E0BA
:10292000002801D0012E69D1E08F0128A06B08D9C1
:1029300021680088C860A06B801CA063E08F801EA7
:1029400007E0216800780873A06B401CA063E08F4B
:10295000401EE08752E02068816889071BD5E18F1F
:10296000002918D00199012915D1E18F0129A16B06
:1029700007D90988C160A06B801CA063E08F801E0E
:1029800006E009780173A06B401CA063E08F401E35
:10299000E0870020019020688168C90723D0E9887A
:1029A000002920D0E988012912D9C068216C08804B
:1029B000206C801C2064E888801EE880E88801285C
:1029C0000FD820684268012109030A43426008E0E9
:1029D000007B216C0870206C401C2064E888401E3D
:1029E000E88001200190FEF70DFF0299401AB842DD
:1029F00002D3781C02D018E0002F16D0E08F0028F8
:102A0000A9D1E8880028A6D139462046029A02F0CA
:102A100019FF002803D0012000902020206601200B
:102A20006877002028770098F5E603200090F6E705
:102A3000094910B5401E884201D9012010BD074C3C
:102A400060610321081F03F0FBFC0020A061072048
:102A50002061002010BD0000FFFFFF0000E000E04B
:102A60007047704730B5034620331A7F012A26D0BD
:102A700001221A770325CA682D02AA438D68002413
:102A80002A430125AD02AA434D6800682A43012567
:102A9000ED02AA430D682A4301252D03AA430D69BF
:102AA0002A4301256D03AA434D69C9692A430125BB
:102AB000AD03AA430A4342641C77002030BD0220C4
:102AC00030BD0000F0B502462032137F012B21D02B
:102AD000012515770223537706687468B368702759
:102AE000BC430F682743776000680B4CA04208D0B6
:102AF000AC07A04205D0094CA04202D0084CA0422D
:102B000004D180244968A34319438160557700208C
:102B10001077F0BD0220F0BD002C01400004004001
:102B20000040014070B5040005D025462035687F7F
:102B3000002802D006E0012070BD00202877204642
:102B400000F00AF802206877211D206802F0DCFFFF
:102B500001206877002070BD08B5324A016832480C
:102B6000914215D18269C1140A43826180690022B1
:102B70000840009011460D20FFF732F90D20FFF7B5
:102B800023F9002211460E20FFF72AF90E200FE04C
:102B9000264A91420FD1C26910210A43C261C0691D
:102BA00000220840009011461120FFF719F911206A
:102BB000FFF70AF908BD1E4A91420ED18269012130
:102BC00009040A438261806900220840009011468E
:102BD0001420FFF705F91420EAE7164A91420ED1B6
:102BE0008269012149040A43826180690022084008
:102BF000009011461520FFF7F3F81520D8E70E4A8C
:102C00009142D7D18269012189040A438261806996
:102C100000220840009011461620FFF7E1F8162028
:102C2000C6E70000002C01400010024000100040E8
:102C30000040014000440140004801400268D36860
:102C400001210B43D360006882685207520F062AA5
:102C500002D002680A43026000207047F8B50546BA
:102C600004462035287F012817D001262E77022020
:102C70006877226890687727FF23B8431B02984340
:102C800090600A68502A31D00EDC202A4BD006DC36
:102C9000002A48D0102A3AD145E00220F8BD302A57
:102CA00041D0402A33D136E0602A27D0702A12D092
:102CB00001200003121A2AD0824228D1CB684A6828
:102CC0008968206802F077FF2068816801229203FA
:102CD000114381601BE0CB684A688968206802F074
:102CE0006AFF216888683843886010E0CA684968CC
:102CF000206803F06FF85021206806E0CA68496830
:102D0000206803F078F86021206802F05FFF6E779A
:102D100000202877F8BDCA684968206803F05AF88F
:102D200040212068F1E711462068EEE7704770B552
:102D30000446006801690025C9438907002915DB9D
:102D4000C168C943890711D4E91E016101202077B8
:102D5000206880698007204602D0FFF7E7FF04E083
:102D600000F0F8F8204600F079F92577206801692D
:102D7000C943490717D4C168C943490713D404217B
:102D8000C943016102202077206880698005800F97
:102D9000204602D0FFF7CAFF04E000F0DBF820462F
:102DA00000F05CF9257720680169C943090716D44A
:102DB000C168C943090712D40821C943016104202D
:102DC00020772068C0698007204602D0FFF7AEFF59
:102DD00004E000F0BFF8204600F040F925772068B5
:102DE0000169C943C90617D4C168C943C90613D4C8
:102DF0001021C9430161082020772068C06980053F
:102E0000800F204602D0FFF791FF04E000F0A2F807
:102E1000204600F023F9257720680169C943C907D6
:102E200008D1C168C943C90704D1891E0161204680
:102E300000F0A4FA20680169C943090609D4C168F1
:102E4000C943090605D48021C94301612046FFF723
:102E500007FE20680169C943490609D4C168C9430E
:102E6000490605D44021C9430161204600F0BAFA61
:102E700020680169C943890609D4C168C943890624
:102E800005D42021C94301612046FFF7EAFD70BD4A
:102E9000F0B587B0044614216846FDF79BF9264833
:102EA0002568002225490223854210D14C69180467
:102EB00004434C614969029201400591401200901F
:102EC00009200193049303926946C00612E01C484E
:102ED0000126854212D14C69B00404434C61496912
:102EE0000292014005910011009004960193039213
:102EF00069461448FEF7BAFB07B0F0BD124F012433
:102F000064051248BD4207D14D6925434D614969A9
:102F100000962140059109E00D4EB542ECD14D6976
:102F200025434D6149690093214005910292039226
:102F3000694601930492DDE7002C01400010024035
:102F400000400140000400480044014000100048D7
:102F5000004801407047F8B5064604462036307FE9
:102F60000D4601280DD0012030770220707704270C
:102F7000002A08D0042A16D0082A2AD00C2A4DD1BB
:102F800037E00220F8BD206802F028FE2068816941
:102F900008221143816120688169B94381612068F9
:102FA00081692A6912E0206802F05CFE206882696B
:102FB0000121C9020A4382612068816901229202CB
:102FC00091438161206881692A69120211438161FC
:102FD00024E0206802F086FE2068C26908210A43C6
:102FE000C2612068C169B943C1612068C1692A69A9
:102FF00012E0206802F0B8FE2068C1690122D20206
:103000001143C1612068C269012189028A43C261FA
:103010002068C1692A6912021143C16101207077D9
:1030200000203077F8BD70B5040005D02546203566
:10303000687F002802D006E0012070BD00202877BC
:10304000204600F00AF802206877211D206802F06F
:103050005BFD01206877002070BD7047F8B506461B
:103060004248434C864206D1A07801280CD1A08862
:10307000401CA08008E03F48864205D13F493E48B9
:103080000860C168491CC1603D487D27FF000025DC
:1030900086423DD1207801280AD1A068401CA0605A
:1030A000B84235D925700021354800F0DFF8A56019
:1030B000207802280CD1A0687D21401C0901A06065
:1030C000884225D9257000212D4800F0CFF8A56051
:1030D000207803280CD1A0687D21401C4901A06004
:1030E000884215D925700021254800F0BFF8A56059
:1030F000207805280CD1A0687D21401C8901A060A2
:10310000884205D9257000211D4800F0AFF8A56060
:103110001C48864229D1607801280BD1E068FF2144
:10312000401CF531E06088421FD96570002002F034
:103130003FFCE5606078022809D1E068401CE0604F
:10314000B84212D96570002002F032FCE560607868
:1031500003280AD1E0680C49401CE060884204D989
:103160006570002002F024FCE560F8BDFC09002039
:10317000680000207C0A0020240200203C0000207F
:103180007C0900203C0A0020DC05000010B5044644
:103190000068012202F002FD0E482168814208D039
:1031A0000D48814205D00D48814202D00C48814231
:1031B00004D1486C0122D20310434864206881681E
:1031C0004907490F062903D0016801221143016014
:1031D000002010BD002C014000400140004401408F
:1031E0000048014010B502680446002906D00429B1
:1031F00007D008292BD00C2907D12BE0D068022357
:1032000001E0D06804231843D0600122206802F056
:10321000C5FC12482168814208D01148814205D07E
:103220001048814202D01048814204D1486C0122EA
:10323000D20310434864206881684907490F062972
:1032400003D00168012211430160002010BDD06845
:103250000823D8E7D0681023D5E70000002C0140F0
:1032600000400140004401400048014030B50446A0
:103270000068002202F092FC154A1448216893105D
:10328000814208D01348814205D01348814202D0C0
:10329000124881420AD1086A104207D1086A1842CE
:1032A00004D1486C0125ED03A84348642068016AF5
:1032B000114206D1016A194203D101684908490047
:1032C0000160012020346077002030BD002C0140D7
:1032D000111100000040014000440140004801403D
:1032E00030B502680446002906D0042907D0082911
:1032F00034D00C2907D134E0D068022301E0D06833
:1033000004239843D0600022206802F047FC174A4B
:10331000154821689310814208D01548814205D094
:103320001448814202D0144881420AD1086A1042EE
:1033300007D1086A184204D1486C0125ED03A8435F
:1033400048642068016A114206D1016A194203D11A
:103350000168490849000160002030BDD068082399
:10336000CFE7D0681023CCE7002C014011110000FA
:103370000040014000440140004801401CB50446A3
:103380000E4884420FD10E490E480968006800902B
:103390000D48019103680D4802680D4801680D4809
:1033A000006801F067FB0C48844205D10C490B48CA
:1033B0000860C168491CC1601CBD0000BC09002038
:1033C000080000200400002000000020140000205D
:1033D000100000200C0000207C0900208403002045
:1033E0003C0000207047704770470000F8B5026845
:1033F0000446D06911689368524D05402E46202539
:10340000002E68D0DE07F60FFF2721370F40374325
:1034100075D0C70706D0CF0504D501271762E26F24
:103420003A43E267820708D5DA0706D02768022206
:103430003A62E26F04273A43E267420708D5DA07A7
:1034400006D0236804221A62E26F02231A43E2675D
:10345000020709D50A462A40324305D023680822CC
:103460001A62E36F1343E367020508D54A0106D5E4
:1034700001222368D2021A62E26F2A43E267E26FF6
:10348000002A30D0800606D5880604D5216E002992
:1034900001D020468847E06F21688968490602D438
:1034A0002821084224D0204602F058FD2068816877
:1034B000490619D58168402291438160E06E002859
:1034C00012D021494163E06EFDF7C6FE00280AD004
:1034D000E06E416B06E0860611D58E060FD5216E93
:1034E0001DE020468847F8BD2046FFF77DFFF8BD68
:1034F0002046FFF779FF0020E067F8BDFFE7C6022E
:1035000008D55B0206D50120000510622046FFF7B2
:103510006AFFF2E7030605D50B0603D5616E0029A5
:10352000DFD1EAE74006E8D54806E6D5136820462D
:1035300040218B43136065670021616600F082FAC9
:10354000DBE700000F080000495F000810B5040029
:1035500003D0606F002802D007E0012010BD0021D9
:1035600070200155204600F027F82420606720686D
:103570000168490849000160204602F057FD012812
:10358000ECD0606A002802D0204602F047FC206898
:1035900041680922D20291434160206881682A2251
:1035A0009143816020680168012211430160204637
:1035B00002F09AFC10BD0000F0B587B0044614215B
:1035C0006846FCF707FE424F012226680021414869
:1035D0005204022303240125BE421DD18769D6105F
:1035E00037438761876937400597466916434661C7
:1035F000406902AE1040059060020090019332C60F
:1036000009206946C006FEF731F8002211461B204A
:10361000FEF7E6FB1B201FE02F4FBE4220D1C669FC
:103620001643C661C6691640059646690122120511
:103630001643466140690491104005906020039450
:103640006E4629C669462548FEF710F80022114645
:103650001C20FEF7C5FB1C20FEF7B6FB07B0F0BD33
:103660001F4A964217D1C5690122D2041543C5618C
:10367000C569154005954569154345614069029145
:103680001040059003208002049100900394019360
:103690006946144818E0144A9642DFD18669202210
:1036A000164386618669164005964669520416439C
:1036B000466140690193104005900320400200904C
:1036C00002AA32C269460948FDF7D0FFC6E70000EA
:1036D000003801400010024000440040000C004847
:1036E000004C00400008004800140140001400484D
:1036F000FFB50446806F85B017460E46202875D169
:10370000002E0AD0002F08D0A168C001814207D145
:103710002069002804D1F00702D0012009B0F0BDD3
:10372000204660300290007C01285FD00298012181
:1037300001740020E0672220A067FEF763F82546A9
:10374000403504902F836F830121A0680903FF2275
:10375000884204D12369002B0CD1254A0AE07F233B
:10376000002809D001221207904213D12269002AB1
:1037700005D03F22AA8303E02769002FFAD0AB834C
:10378000AA8B0192884202D12069002804D03746D2
:10379000002602E00022EDE70027D0B20390688BFC
:1037A00000281DD008980090002220212046049B6C
:1037B00002F056FD002801D00320AFE72068002F5B
:1037C000808C07D00399084038707F1C688B401E9E
:1037D0006883E4E7019908403080B61CF6E705E00D
:1037E0002020A06702990020087497E7022095E73F
:1037F000FF010000F0B5836F202B54D100290AD0BF
:10380000002A08D08568DC01A54206D10369002B97
:1038100003D1CB0701D00120F0BD034660331E7CED
:10382000012E40D001261E744165014640310A83B5
:103830004A830022FF260266A54204D10569002DB5
:1038400013D11A4D0AE07F27002D09D00126360733
:10385000B5420CD10569002D05D03F258D8307E0C9
:103860000569002D01D08F8302E08E8300E08A83FA
:10387000C2672221816701688D68012635438D600A
:103880008168A14202D1016900290AD00849016674
:103890001A7400680168FF22213211430160002080
:1038A000F0BD0449F3E70220F0BD0000FF01000075
:1038B000D55F00087D5F000810B5044608488442C3
:1038C0000CD10848017808A002F056FD03F0DEFC98
:1038D00009480449027C2046FFF78CFF10BD000018
:1038E0003C0B00202A0600205241573A2020202578
:1038F000642C200A000000007C000020FFB5044674
:10390000406F83B017460D4620285CD1002D0AD0A9
:10391000002F08D0A168C001814207D1206900288A
:1039200004D1E80702D0012007B0F0BD2046603086
:103930000290007C012846D00298012101740020E9
:10394000E06721206067FDF75DFF26464036019065
:10395000378277820120A1680003814202D1206969
:10396000002802D02F46002511E000270FE000229A
:103970008021204602F074FC002815D1002F15D0BC
:103980002168387808857F1C708A401E7082708A92
:10399000019B002806980090E9D100224021204692
:1039A00002F05EFC002808D00320BDE728882168CB
:1039B000C005C00D0885AD1CE6E7202060670299B0
:1039C00000200874B0E70220AEE7000070B5436F36
:1039D000202B30D100290AD0002A08D08568DC01CC
:1039E000A54206D10369002B03D1CB0701D00120EA
:1039F00070BD034660331E7C012E1CD001261E7450
:103A0000C164014640310A824A8200214166C16791
:103A100021224267A54202D10269002A09D0074A41
:103A20004266197400680168802211430160002019
:103A300070BD034AF4E7022070BD00002562000853
:103A4000E5610008704700007CB504460020019045
:103A5000684604710A25012301AA80211B480095AC
:103A6000FEF71CF81420FDF7C9FC022301AA8021EF
:103A700016480095FDF78AFF6846007901026846FE
:103A800040790843002C02D0012C1CD10EE0FCF739
:103A900063FE00220E4BFCF7ABFD00220D4BFCF742
:103AA0003FFD00220C4BFCF72CFD09E0FCF754FE17
:103AB0000F22D243FCF714FE0022084BFCF730FD26
:103AC000FCF76CFE80B200B27CBD000058080020FC
:103AD0000000F04000A06440000044400000594055
:103AE0001FB5FB206946087102F018FC002813D0AE
:103AF000002000901423202208A101A802F04CFC11
:103B000001A8FCF772FB83B20A20009001AA802171
:103B10000448FDF7C3FF012004B010BD25642564EF
:103B20002564000058080020FEE701688A69D24336
:103B3000920701D400228A6200688169C943C907DB
:103B400003D081690122114381617047F7B50446B2
:103B500000680E468069C043C0062BD42027254646
:103B6000403520688069C043800612D5701CF8D0AB
:103B7000FDF748FE0299401AB04201D8002EF0D15C
:103B8000606C384360646F700020A870287001205A
:103B9000FEBD21681020C8612068C7612046FFF77C
:103BA000C4FF20684168044A11404160606C0421F0
:103BB0000843E7E70020FEBD00E800FEF0B5066818
:103BC000059C7568064F600D384385438805800D58
:103BD000110408431843204305437560F0BD0000FD
:103BE000FF63FF03F8B51D4617460E46044609E07D
:103BF000681C07D0FDF706FE0699401AA8420BD8AC
:103C0000002D09D020688169304688430FD00020FC
:103C1000B842EDD00020F8BD616C20200143616402
:103C2000403460700020A07020700120F8BD012099
:103C3000EEE70000F7B5002720260546044640358C
:103C400028E02046029A0199FFF780FF002801D062
:103C50000120FEBD20688069C043800611D4206821
:103C60008169C943490702D4218D002917D1C66152
:103C7000206841680E4A1140416067646E70AF7001
:103C800013E0FDF7BFFD0299411A0198814208D85F
:103C9000002806D020688069C0434007D1D40020A6
:103CA000FEBD606C304360646E702F70D0E7000022
:103CB00000E800FE70B516460D4604460FE0324699
:103CC00029462046FFF742FF002801D0012070BDA1
:103CD000FDF798FD801BA84208D8002D06D020686B
:103CE0008069C0438006EAD4002070BD616C20204A
:103CF00001436164403460700020A0702070E5E7EB
:103D000070B516460D46044611E032462946204657
:103D1000FFF71CFF002801D0012070BD681C06D0F1
:103D2000FDF770FD801BA84208D8002D06D0206842
:103D30008069C0438007E8D4002070BD616C2020FA
:103D400001436164403460700020A0702070E3E79C
:103D500070B51F2004F01EFBFCF7D8FC0A24E443D6
:103D60002146FCF71DFB21490860212004F012FBCD
:103D7000FCF7CCFC2146FCF713FB1D49086023200F
:103D800004F008FBFCF7C2FC2146FCF709FB1949CB
:103D90000860252004F0FEFAFCF7CAFC164C174D0B
:103DA00022462B46FCF724FCFCF73EFD1449086034
:103DB000272004F0EFFAFCF7BBFC22462B46FCF769
:103DC00017FCFCF731FD0F490860292004F0E2FAE6
:103DD000FCF7AEFC22462B46FCF70AFCFCF724FD60
:103DE0000949086003F0E0F970BD00000000002000
:103DF00004000020080000206666666666663040A3
:103E00000C000020100000201400002010B501213B
:103E1000112004F0E7FA1420FDF7F0FA082113202E
:103E200004F0E0FA0121112004F0DCFA1420FDF77F
:103E3000E5FA1F214E2004F0D5FA012010BD10B57F
:103E4000142000F09CF8800703D10321142000F017
:103E5000BBF810BD7CB50446002529460D2000F0B6
:103E600047F9932020702020607001A8234600901D
:103E7000022219460C2000F0B2F8011E09D1225C82
:103E8000401C5540C0B20428F9D3205CA84200D0A1
:103E9000022108467CBDF8B50E46074615460421AA
:103EA000052000F025F880210A2000F08DF800247C
:103EB00005E0395D092000F01BF9641CE4B2B4424E
:103EC000F7D30321012000F013F9FF24052000F0AF
:103ED00056F8641E2406240E01D04007F6D5222091
:103EE00000F04DF82870212000F049F86870F8BD06
:103EF00070B50C46054600F042F8A043014628463E
:103F000000F0F6F870BD10B500F058F88D212A20A9
:103F100000F0EEF83E212B2000F0EAF81E212D20C3
:103F200000F0E6F800212C2000F0E2F870212620B5
:103F300000F0DEF84021152000F0DAF83D211120D4
:103F400000F0D6F8FFF77BFF10BD1CB50C46302102
:103F500021706070A21C02212046FFF79CFF01A87F
:103F600023460090042219460C2000F038F800285F
:103F700003D169468988902900D002201CBD8006A3
:103F800010B5400E803001F00FFC10BD7CB50C4622
:103F9000054607210D2000F0ABF8257001A8234647
:103FA0000090012219460C2000F019F8002803D1D6
:103FB00069468988102900D002207CBD10B50F21E8
:103FC000012000F095F810BD70B50C460546FFF7CE
:103FD000D6FF20430146284600F08AF870BDFFB5A1
:103FE00081B0002401980226174600940C2804D0C2
:103FF0000E2805D11224102001E0772430200090F3
:10400000214680200143022000F072F88021042024
:10401000FFF76EFF80210A20FFF7D6FF0021012065
:1040200000F066F8002506E00298415D092000F0E6
:104030005FF86D1CADB2BD42F6D30120019900F0CE
:1040400057F801980C2803D180210D20FFF7BCFF01
:104050007D273F010420FFF792FF7F1E3F040546A6
:104060003F0C04D0E80702D100980542F2D080212D
:104070000D20FFF73DFF002F0FD00620FFF77FFF39
:104080001B21084208D100262540E80700D0012660
:1040900001980C2804D000E00226304605B0F0BD9F
:1040A0000A20FFF76CFF04460C20FFF768FF40076B
:1040B000400F05D0E100083908180A99088002E08D
:1040C0000A98E1000180002C04D0102C04D910249F
:1040D000002503E00124FBE7002506E00920FFF7A7
:1040E0004EFF049948556D1CADB2A542F6D3D4E7F6
:1040F00010B58006400E01F07FFB10BD3EB50021DB
:104100002C48009101912A4A02910260082501245D
:104110008560520504614260C160042242610176FB
:1041200041768476FF22C176C232C26101620146C5
:1041300020310C718462FCF715FF002801D0FCF7D8
:104140004FFE012000030190072002900094694671
:104150001848FCF755FE002801D0FCF741FE6946DF
:1041600014480095FCF74CFE002801D0FCF738FEFF
:104170000A20009069460F48FCF742FE002801D053
:10418000FCF72EFE0C20009069460A48FCF738FE2A
:10419000002801D0FCF724FE0E2000906946054857
:1041A000FCF72EFE002801D0FCF71AFE3EBD0000F1
:1041B000002401408807002008B508484169012211
:1041C00011434161406910400022009011460920CE
:1041D000FDF706FE0920FDF7F7FD08BD00100240BF
:1041E000F0B587B014216846FBF7F4FFAC4840698E
:1041F000012149050843AA49486148690121490547
:1042000008400590A648406989100843A4494861C0
:1042100048690121C90408400590A1484069C900C6
:1042200008439F4948614869012189050840059074
:104230009B484069491108439949486148690121EF
:10424000490408400590964840694900084394494C
:1042500048614869012189040840059090484069F7
:10426000890008438E4948614869012109050840D1
:104270000590012244218B48FDF7BDFAD52100228B
:10428000C9008848FDF7B7FA012208218648FDF7E2
:10429000B2FA012208218548FDF7ADFA01228449CE
:1042A0008448FDF7A8FA012424030022214681480E
:1042B000FDF7A1FA002280498048FDF79CFAFF2112
:1042C0000022C1317848FDF796FA11210920012218
:1042D000C902C006FDF78FFA092000222146C00658
:1042E000FDF789FA7648002401250090029469467A
:1042F000019503946B48FDF7B9F972486A4631C2DB
:1043000069466848FDF7B2F968036A4631C26946F2
:104310006548FDF7ABF902266B4F69466248019785
:1043200000960294FDF7A2F90820009001956946D5
:10433000029503945C48FDF799F9042000906946C2
:10434000019702945948FDF791F9082000900195D2
:104350006946029503945548FDF788F90C206A4692
:1043600031C209206946C006FDF780F9574801901F
:1043700040270920694600970295C006FDF776F9A7
:104380008020009052480190092069460294C0069E
:10439000FDF76CF90096029403946946454801962E
:1043A0000494FDF763F94B48009002946946019527
:1043B00003944048FDF75AF90F20C0020090019481
:1043C000694602943748FDF751F9E8036A4631C25D
:1043D00069463848FDF74AF90320000200903B483F
:1043E0000190694602953548FDF740F93920C00132
:1043F00000900194694602943048FDF737F9072090
:1044000040030326009069460396019502942B48C9
:10441000FDF72CF9FF20C130009069460396019505
:1044200002942148FDF722F91320C00200900920D0
:104430000294694601950394C006FDF717F9694691
:104440001A48009702950194FDF710F90D2000908D
:1044500002946946019503941848FDF707F9019401
:104460006946144800970294FDF700F900221146AE
:104470000520FDF7B5FC0520FDF7A6FC002211463E
:104480000620FDF7ADFC0620FDF79EFC002211463C
:104490000720FDF7A5FC0720FDF796FC07B0F0BD4F
:1044A00000100240001000480008004800140048B6
:1044B00084200000000400480DE00000000C0048CB
:1044C000EC060000108100000000311000002110F7
:1044D000000011108430000010B51348114901602C
:1044E00012494160002181600161416181610122C5
:1044F000C161C2600162FDF7EFF9002801D0FCF74D
:104500006FFC00210848FDF783F9002801D0FCF773
:1045100067FC00210448FDF7A0F9002801D0FCF752
:104520005FFC10BD005400400C0800200E09002064
:1045300010B51348114901601249416000218160A2
:104540000161416181610122C161C2600162FDF7C7
:10455000C3F9002801D0FCF743FC00210848FDF70F
:1045600057F9002801D0FCF73BFC00210448FDF777
:1045700074F9002801D0FCF733FC10BD005800404E
:10458000580800205D3E302010B5094807490160F9
:1045900006214160FF217631C1608160FDF77CFB1F
:1045A000002801D0FCF71CFC10BD000000300040CA
:1045B000A408002010B511480F490160FF21053102
:1045C000416000210722816012020161C260012264
:1045D000416152028261016238224162C26181629C
:1045E0000722C262016308214163FDF78BFF0028A7
:1045F00001D0FCF7F5FB10BD00300140B4080020ED
:1046000010B5124810490160FF21053141600121B8
:10461000C903816007210902C160002101220161F3
:10462000520282614161016230224162C261816253
:104630000722C262016308214163FDF763FF00287E
:1046400001D0FCF7CDFB10BD003800401809002058
:1046500010B596B000240F941094119412941394F2
:104660001C2108A81494FBF7B5FD20216846FBF730
:10467000B1FD2B4829490160042184604160046137
:10468000446128498461C160FEF74CFA002801D0DA
:10469000FCF7A6FB012000030F900FA92048FEF7AE
:1046A000DDFA002801D0FCF79BFB1D48FEF7BBFCA0
:1046B000002801D0FCF794FB139413A91848149414
:1046C000FEF700FA002801D0FCF78AFB6020089072
:1046D00032200E9409900A940B940C940D940022AD
:1046E00008A90F48FEF737FC002801D0FCF778FB3B
:1046F00001200094400302940590019403940494D3
:10470000694607940648FEF7ADF9002801D0FCF78A
:1047100067FB0348FEF7BCFB16B010BD004001402C
:10472000FC090020E703000010B590B01C2108A888
:10473000FBF750FD20216846FBF74CFD214820493E
:1047400001600024052184604160046144611E49C8
:104750008461C160FEF7E6F9002801D0FCF740FB58
:104760001848FEF760FC002801D0FCF739FB6020F8
:10477000089032200E9409900A940B940C940D9496
:10478000002208A90F48FEF7E6FB002801D0FCF73D
:1047900027FB0120009440030294059001940394A8
:1047A0000494694607940748FEF75CF9002801D095
:1047B000FCF716FB0348FEF76BFB10B010BD0000C2
:1047C000004401403C0A0020E703000010B590B00F
:1047D0001C2108A8FBF7FEFC20216846FBF7FAFC29
:1047E0002148204901600024042184604160046163
:1047F00044611E498461C160FEF794F9002801D02C
:10480000FCF7EEFA1848FEF70EFC002801D0FCF782
:10481000E7FA6020089032200E9409900A940B94D5
:104820000C940D94002208A90F48FEF794FB002871
:1048300001D0FCF7D5FA01200094400302940590C2
:10484000019403940494694607940748FEF70AF913
:10485000002801D0FCF7C4FA0348FEF719FB10B09A
:1048600010BD0000004801407C0A0020E703000062
:1048700010B596B000240F941094119412941394D0
:104880001C2108A81494FBF7A5FC20216846FBF71F
:10489000A1FC2B4829490160042184604160046126
:1048A000446128498461C160FEF73CF9002801D0C9
:1048B000FCF796FA012000030F900FA92048FEF79D
:1048C000CDF9002801D0FCF78BFA1D48FEF7ABFBB1
:1048D000002801D0FCF784FA139413A91848149403
:1048E000FEF7F0F8002801D0FCF77AFA6020089073
:1048F00032200E9409900A940B940C940D9400228B
:1049000008A90F48FEF727FB002801D0FCF768FA3A
:1049100001200094400302940590019403940494B0
:10492000694607940648FEF79DF8002801D0FCF779
:1049300057FA0348FEF7ACFA16B010BD002C014040
:104940007C090020E70300001CB500240F480094F8
:104950000D4901940160FF216C31846041600C4974
:104960008461C160FEF7DEF8002801D0FCF738FA58
:104970000094694605480194FEF7A4F8002801D088
:10498000FCF72EFA1CBD000000100040BC090020FE
:10499000E703000010B50C480A490160E121490213
:1049A000416000218160C16001618161C1610C22AF
:1049B000016242614162FEF7C9FD002801D0FCF7A7
:1049C0000FFA10BD00380140BC0A002010B50C4899
:1049D0000A490160E1214902416000218160C16012
:1049E00001618161C1610C22016242614162FEF795
:1049F000ADFD002801D0FCF7F3F910BD00440040E4
:104A00003C0B002010B50C480A490160E121490225
:104A1000416000218160C16001618161C1610C223E
:104A2000016242614162FEF791FD002801D0FCF76E
:104A3000D7F910BD004C0040BC0B002010B50C484D
:104A40000A490160E1214902416000218160C160A1
:104A500001618161C1610C22016242614162FEF724
:104A600075FD002801D0FCF7BBF910BD0014014012
:104A70003C0C0020FFB597B015460E46FE4C214673
:104A8000FBF713FC179021463046FBF70EFC1890FD
:104A900021462846FBF709FCF84C0146199060694D
:104AA000FBF703FC064618992069FBF7FEFB054659
:104AB000E0680121C90748401799FBF7F6FB294632
:104AC000FBF7EBFB3146FBF7E8FB0027FF433946DA
:104AD000FBF766FC0C9018996069FBF7E6FB06464D
:104AE00019992069FBF7E1FBA16805461798FBF7C8
:104AF000DCFB2946FBF780FB3146FBF7CEFB394652
:104B0000FBF74EFC616906461798FBF7CEFB009059
:104B10001999E068FBF7C9FB05461899A068FBF7EF
:104B2000C4FB2946FBF7B9FB0099FBF765FB394647
:104B3000FBF736FC216905461798FBF7B6FB00909A
:104B40001899E068FBF7B1FB02901999A068FBF790
:104B5000ACFB0299FBF750FB0099FBF79EFB394633
:104B6000FBF71EFC07461A984000000E07D120985C
:104B70004000000E03D121984000000E7ED0219904
:104B80000846FBF792FB209900900846FBF78DFB47
:104B90001A9902900846FBF788FB0299FBF72CFB59
:104BA0000099FBF729FB02F035FF014600901A98A7
:104BB000FBF77BFB1A9000992098FBF776FB20907F
:104BC00000992198FBF771FB21900121A068FBF768
:104BD000E7FB14900121E068FBF7E2FB1390012151
:104BE0002069FBF7DDFB129001216069FBF7D8FB20
:104BF00015900221A068FBF7D3FB02900221E06828
:104C0000FBF7CEFB079002212069FBF7C9FB04905C
:104C10000321E068FBF7C4FB089003212069FBF740
:104C2000BFFB0690A168A068FBF73FFB1190E1680D
:104C3000E068FBF73AFB019021692069FBF735FB3F
:104C4000009061696069FBF730FB0590209913982B
:104C5000FBF72BFB039001990298FBF726FB0E90C4
:104C60001A991298FBF721FB0D9000990298FBF717
:104C70001CFB0D99FBF7C0FA0E9900E0EEE0FBF784
:104C8000BBFA0399FBF709FB029021990798FBF700
:104C90000CFB0D9000990898FBF707FB0390019916
:104CA0000898FBF702FB109020991498FBF7FDFA87
:104CB0000F9002211198FBF773FB1690E168FBF748
:104CC000F4FA0E901A991598FBF7EFFA11900599DE
:104CD0000798FBF7EAFA1199FBF7DFFA0E99FBF751
:104CE0008BFA0F99FBF7D9FA0799FBF7D6FA1099C7
:104CF000FBF782FA0399FBF77FFA0D99FBF77CFA31
:104D0000039021990498FBF7D0FA0890009906982F
:104D1000FBF7CBFA079001990698FBF7C6FA0690C5
:104D200020991598FBF7C1FA0D9005990498FBF7A7
:104D3000BCFA05901A991498FBF7B7FA0E901698DA
:104D40002169FBF7B2FA0E99FBF756FA0599FBF7C2
:104D500053FA0D99FBF7A1FA0499FBF79EFA06990D
:104D6000FBF74AFA0799FBF747FA0899FBF744FA69
:104D7000049020991298FBF798FA05900221009868
:104D8000FBF70EFB6169FBF790FA00901A991398F4
:104D9000FBF78BFA069002210198FBF701FB616992
:104DA000FBF783FA0699FBF778FA0099FBF724FAE8
:104DB0000599FBF772FA01460190FBF776FA049920
:104DC00000900846FBF771FA039905900846FBF737
:104DD0006CFA079002990846FBF767FA0799FBF708
:104DE0000BFA0599FBF708FA0099FBF705FA02F0B0
:104DF00011FE014600900298FBF757FA02900099C5
:104E00000398FBF752FA039000990498FBF74DFAC8
:104E1000049000990198FBF748FA019002996068A4
:104E2000FBF743FA0C99FBF73CFA0C900399606886
:104E3000FBF73BFA3146FBF734FA06460499606803
:104E4000FBF733FA2946FBF72CFA0546019960680F
:104E5000FBF72BFA3946FBF724FA07460621C9432C
:104E60000C98FBF79DFAA168FBF7C6F9A060062134
:104E7000C943304604E0000039FA8E3C1800002097
:104E8000FBF78EFAE168FBF7B7F9E0600621C9434A
:104E90002846FBF785FA2169FBF7AEF92061062168
:104EA000C9433846FBF77CFA6169FBF7A5F96061F5
:104EB00061696069FBF7F9F9216907462069FBF729
:104EC000F4F9E1680646E068FBF7EFF9A1680546EA
:104ED000A068FBF7EAF92946FBF78EF93146FBF7A4
:104EE0008BF93946FBF788F902F094FD0546014637
:104EF000A068FBF7DAF9A0602946E068FBF7D5F96E
:104F0000E06029462069FBF7D0F9206129466069F5
:104F1000FBF7CBF960611BB0F0BD10B5FDF7E4F80D
:104F200010BD7047F0B589B0FBF7A6FEFF202D300D
:104F3000FCF764FAF94D00246C62AC62F84EEC6246
:104F40003480F8A001F018FA032003F031FC0420AB
:104F500003F02EFC01206871F748FCF7CFFE68795A
:104F6000FF28F9D11421E86AFBF7C2F8EB49C862BF
:104F70000146F2A001F000FAC820FCF73FFAE7482A
:104F8000E6494462002088620690B4E00128FCDB18
:104F9000E24D4121686A0906884275DBFBF71CFC7B
:104FA00002460B46EAA001F0E7F96C620026AC620B
:104FB000F1480168E86A0090081A00D54042FBF702
:104FC000A5FB07460098FBF7ACFB01463846FBF70C
:104FD000A9F9EA49FBF769F96862A96AFBF70CF9D4
:104FE000A8620A20FCF70AFA761C142EE0DBE449DA
:104FF000A86AFBF797F941210906A86288420BDBF2
:10500000C64801218172806AFBF7E6FB02460B4627
:10501000DCA001F0B1F940E201277F02002239460D
:10502000E048EC62FCF7E7FB012296023146DD48DE
:10503000FCF7E1FB6420FCF7E1F901223946D9488D
:10504000FCF7D9FB00223146D648FCF7D4FBBA481E
:10505000FCF754FEFF20F530FCF7D0F9B648FCF71A
:105060004DFE01206871B448FCF748FE6879FF28BE
:10507000F9D11421E86AFBF73BF80146E862AFA0DA
:1050800001F07AF93BE0FFE7A44D0126C54F760217
:10509000002231463846EC62FCF7ADFB012291025A
:1050A0003846FCF7A8FB6420FCF7A8F9012231463A
:1050B0003846FCF7A0FB002271003846FCF79BFB4A
:1050C0009D48FCF71BFEFF20F530FCF797F99A4846
:1050D000FCF714FE012068719748FCF70FFE687911
:1050E000FF28F9D11421E86AFBF702F80146E862CB
:1050F00092A001F041F98948894984720C80AA483C
:105100000078012806D0A948007801280BD0022891
:1051100013D016E0814DA448AC720470A4A001F035
:105120002BF9052007E094484068042809D27B4DFC
:10513000A6A0AC7223E0E871AFE102F017F80028F6
:105140001AD001218902A548FCF750FB01281AD08A
:10515000FEF7FEFD069801281CD002281AD003286D
:1051600023D004282AD0052832D006287DD007284D
:105170007CD008287BD038E0684D99A0AC7201F053
:10518000FBF80220D7E7654D9AA0AC7201F0F4F865
:105190000320D0E79C49012008700021032003F080
:1051A0007BFC9AA001F0E8F81FE09AA001F0E4F877
:1051B0009548022101700021032014E097A001F01E
:1051C000DBF8914903200870012103F065FC02E03F
:1051D00094A001F0D1F8002003F0EAFA01219348ED
:1051E0000170002176E003F057FC9148012505701D
:1051F0000021042003F050FCFCF704FB0490FCF7B2
:1052000001FB0390FF209130FCF7F8F8434EB57195
:105210004948FCF773FDB0790028F9D100250895BD
:10522000746234624448FCF769FD534E3B4FB068EA
:10523000F98A0291401A00D54042FBF767FA3749D4
:10524000074608624C48C96A00680091401A00D5B8
:105250004042FBF75BFA06460298FBF762FA01460A
:105260003846FBF75FF8454902E025E02BE033E0E4
:10527000FBF71BF82949074608620098FBF751FA2B
:1052800001463046FBF74EF83C49FBF70EF8234940
:10529000486201466748874209DC41200006814296
:1052A00005DC04990398401A6349884201D9002D0E
:1052B00014D0012D22D0E3E060A001F05DF85B493D
:1052C0000320087005E05FA001F056F8574801215F
:1052D00001700121002086E7022180E75448047014
:1052E000042000F065FB0121042003F0D5FB01251B
:1052F0000320FCF783F855A001F03EF81E48016931
:10530000FF20F530814208D258A001F035F8042082
:1053100000F04EFBFCF776FAB9E0B1E02401002082
:105320006C0000205374617274205069636B2050CC
:10533000696C6C73200D0A00A408002050756D7014
:10534000206176672076616C202564200D0A0000BC
:1053500050657263656E74616765204368616E674E
:10536000652050756D702064657465637465642094
:105370002566200D0A000000580600200000C842E3
:105380000000A84150657263206368616E67652004
:10539000466972737420436865636B202566200D2F
:1053A0000A00000000100048870000208E00002046
:1053B000496E746572727570742043616E63656CBA
:1053C0005069636B50696C6C200D0A00496E7465FE
:1053D0007272757074204375700D0A00000C0048DD
:1053E000496E746572727570742050696C6C420DF0
:1053F0000A000000496E746572727570742047610E
:105400007465200D0A0000006800002031200D0A9C
:105410000000000032200D0A0000000033200D0AB9
:105420000000000034200D0A000000006900002088
:105430006A000020000070419808000035200D0A25
:105440000000000037200D0A0000000053486F756F
:105450006C6420537461727420476F696E672055C5
:1054600070206E6F77200D0A0000000054525545E1
:10547000204E4F572053544F50200D0A000000007B
:10548000FCF7C0F903900898002800D1CAE60698F6
:10549000401C0690082800DC78E5974DA87A002883
:1054A0002DD16C620026AC6294480168E86A0090D5
:1054B000081A00D54042FBF729F907460098FBF788
:1054C00030F901463846FAF72DFF8D49FAF7EDFE1F
:1054D0006862A96AFAF790FEA8620A20FBF78EFFBD
:1054E000761C142EE0DB87492E46A86AFAF71AFFCD
:1054F00041210906B062884201DB0120B07282A01E
:1055000000F03AFF7C48807A012805D0E5E00121CF
:10551000042003F0C1FA02E0FF26784D2D362869F9
:10552000B042F4D8042000F043FAFCF76BF972495A
:10553000784F794E0D4608634AE078480078012894
:1055400006D07748007801280AD0022812D015E04A
:105550007248AC720470734800F00EFF052007E03B
:1055600066484068042809D26E48AC721C3024E0BA
:10557000E87134E001F0FAFD00281BD00121890216
:105580006948FCF733F901281BD068A000F0F4FE4D
:105590007148FCF7B3FB0121032003F07DFAFCF70F
:1055A00031F9296B401AB84212D900216B48FDF736
:1055B00097FE14E05B48AC72303000F0DDFE022054
:1055C000D6E75848AC72443000F0D6FE0320CFE74F
:1055D000012109033046FCF709F90028ADD100216B
:1055E0005E48FDF77DFE5E4E0520307000210320F1
:1055F00003F052FA494F25E03878012806D0484890
:105600000078012809D0022811D014E0AC723C7057
:10561000444800F0B1FE052007E0384840680428FF
:1056200009D24048AC721C304BE0E8710DE001F04B
:105630009DFD002842D0012189023B48FCF7D6F8A5
:10564000012842D030780028D6D16C620026AC62A6
:105650002A480168E86A0090081A00D54042FBF722
:1056600055F807460098FBF75CF801463846FAF70C
:1056700059FE2349FAF719FE6862A96AFAF7BCFDD8
:10568000A8620A20FBF7BAFE761C142EE0DB1D4947
:10569000A86AFAF747FEA862FBF79EF802460B4697
:1056A00030A000F069FE4120A96A0006814213DBA8
:1056B0000120A8726C62AC62EC620EE01948AC7218
:1056C000303000F059FE0220AFE71648AC7244308B
:1056D00000F052FE0320A8E7AC72074844628462DF
:1056E000C462032003F018F9042003F015F9002028
:1056F00003F012F909B0F0BD240100205806002083
:105700000000C8420000A84148657265204E6F77CE
:10571000200D0A00B80B0000001000488700002090
:105720008E000020B0530008000C004843686563F9
:105730006B696E67206966207765206172652061FC
:1057400074207069636B20706F73206F72206E6FAE
:1057500074200D0A00000000A40800207C0900202D
:10576000680000205069636B50696C6C2050696C54
:105770006C20507265737375726553656E736F72CA
:10578000202566200D0A00000EB5694608710A2022
:105790000090012302AA01A90248FDF71DF86946FD
:1057A000087A0EBDB408002070B5054610480124E3
:1057B0000078E403012802D0022805D016E0002278
:1057C00009262146F60602E00A4E0022214630460E
:1057D000FCF711F82846FFF7D7FF0020FFF7D4FFAA
:1057E0000546012221463046FCF705F8284670BDE3
:1057F00040000020000C0048F8B505460F48012481
:105800000078E4030E46012813D0022810D10C4F73
:10581000002221463846FBF7EEFF2846FFF7B4FF8B
:105820003046FFF7B1FF012221463846FBF7E3FF80
:10583000F8BD002209272146FF06EBE740000020C3
:10584000000C0048F8B50F460B46154600920321A0
:1058500004460022C90200F01BF82026002812D1BD
:105860003B46002280212046009500F059F8002890
:1058700009D103213B46002249022046009500F051
:1058800007F8002803D0206E304320660320F8BDBF
:10589000F8B51D4617460E46044610E0032149029E
:1058A0008E4202D1002F00D1007B681C07D0FBF78D
:1058B000A9FF0699401AA84208D2002D06D02068F8
:1058C00081683140B942E9D10020F8BD20684168C3
:1058D000E022914341606068C11FFD390CD1012174
:1058E000A068C903884202D04911884204D12068C7
:1058F00001684022914301600120A16A4003814276
:1059000007D121680A6882430A6021680A68024355
:105910000A60012040346077002020770320F8BD22
:10592000F8B51D4617460E46044609E0681C07D028
:10593000FBF768FF0699401AA8420BD2002D09D048
:1059400020688168304688432ED00020B842EDD1CF
:105950000020F8BD20684168E02291434160606802
:10596000C11FFD390CD10121A068C903884202D0B2
:105970004911884204D120680168402291430160A6
:105980000120A16A4003814207D121680A6882434D
:105990000A6021680A6802430A6001204034607787
:1059A000002020770320F8BD0120CFE770470000DA
:1059B00010B5194C002813D0012818D0032822D084
:1059C00004280CD100211548FDF750FC0021134894
:1059D000FDF786FC012251031148FBF70CFF10BDB7
:1059E00000211048FDF742FC0122042109E00021BA
:1059F0000D48FDF73BFC00210B48FDF771FC01222F
:105A000040212046E9E700210848FDF72FFC01224C
:105A1000D1020920C006E0E700100048FC09002080
:105A2000000400483C0A00207C0A00207C09002079
:105A300010B5FCF76BF910BD30B599B0342168464C
:105A4000FAF7C8FB00241494159416941C210DA891
:105A50001794FAF7BFFB0B200090012007900190EC
:105A6000039000040A9002250001102109950B9073
:105A700004910C946846FCF743FB0720149016949D
:105A800001211595179414A8FCF740FA23201294CD
:105A90000D900F9410940DA8FCF7A6F9FCF7C0FA2E
:105AA00019B030BD7047000010B50248FDF73FF94E
:105AB00010BD0000FC09002010B50248FDF737F9C1
:105AC00010BD00003C0A002010B50248FDF72FF978
:105AD00010BD00007C0A002010B50248FDF727F930
